:0200000480007A
:100000003741000213010100B70100029381010092
:10001000B7C500809385054E37C600801306065588
:10002000B70600029386060039A083A2050023A02C
:10003000560091059106E3EAC5FEB70500029385D7
:100040000507373600021306067421A023A0050019
:100050009105E3EDC5FEB7000080E7804007B700DB
:100060000080E7804007B7A00080E780C07773007A
:100070005010F5BF8280000000000000000000006A
:100080000000000000000000000000000000000070
:100090000000000000000000000000000000000060
:1000A0000000000000000000000000000000000050
:1000B0000000000000000000000000000000000040
:1000C0006FA00034197106C20AC40EC612C816CA3F
:1000D0001ACC1ECE22D026D22AD42ED632D836DA48
:1000E0003ADC3EDEC2C0C6C2CAC4CEC6D2C8D6CA78
:1000F000DACCDECEE2D0E6D2EAD4EED6F2D8F6DA28
:10010000FADCFEDE970000009380E00482909240CB
:100110002241B2414242D2426243F24302549254DB
:100120002255B2554256D2566257F2570648964863
:100130002649B649464AD64A664BF64B065C965C5B
:10014000265DB65D465ED65E665FF65F096173004A
:10015000203001A0411122C43754080026C206C62F
:1001600013040480B704000213054006EF70205307
:10017000228593050008EF10206E03A50407814631
:1001800001468145EF50A04DC5B7411122C426C29A
:1001900006C63704000285440325040711E101A0C7
:1001A00093054006EF505007E31895FEEF80F022CC
:1001B000E5B73971B70700025ECE83AB070052D4B2
:1001C0005AD006DE22DC26DA4AD84ED656D262CC87
:1001D000370B0002370A000293040B1A130981003F
:1001E000138C0401CA8A83A904004E85EFB05051D4
:1001F000131405014E85EFB0904AEFB03056AA8532
:100200004E85EFB03011DE854180EFB0A0576345D9
:10021000A0007D1442044180231089009104090943
:10022000E3139CFC5685EFA020130325CA078146E3
:1002300001468145EF50A04245B7011122CC370459
:1002400000021304041A26CA4AC84EC652C456C233
:1002500006CE370A0002854AB709000237090002B4
:10026000930404010325CA07FD55EF50E07AE31B10
:1002700055FF03D6090883552908A2862685EF90E5
:10028000F00BCDB7011122CC370400021304041A7D
:1002900026CA4AC806CE13094006930404018357B0
:1002A000C44C139727002297584F3AC2138747062A
:1002B0000A072297584F3AC41387870C0A072297D8
:1002C000584F3AC60357E44C6366F7008507139707
:1002D000070141836369E9002316E44CA6854800C1
:1002E000EF8010606DBF2316044CCDBF411122C4B6
:1002F0003704050006C6130404401C50898B99C3BB
:10030000EF80901A1C5037071000F98F99C3EF90B7
:10031000905AB7070500938707407D5798CF22442E
:10032000B7070002B24003A50707814541016F509E
:1003300000575D71130680028145280886C6EFA02C
:100340006039BD47230CF1008947230EF1003ED2EE
:100350008567938707882C080A85231AF102EF2006
:100360003038B64061618280B707490023A2070098
:100370000147D8C79843814637E6040094C713065F
:10038000062081461367170090CBD4CB98C3930700
:100390000008F3A747308280F32720341D4793F6E7
:1003A000F700639BE60263D90702411106C6B70650
:1003B00049009C4A37E70400CC4A130707203E97C0
:1003C000B337F700AE9798CADCCAEF60C04111C5D9
:1003D000B24041016F60A05611BFB240410182801E
:1003E000737004306F60003AE5BF0111B717080061
:1003F00006CE02C402C6938707406313F502B7070F
:1004000005000947D8CF930700063EC085473EC286
:100410008A8537450800EF108034F24005618280FC
:10042000B727080093870780E319F5FEB707050093
:100430001147D8CF930700303EC0374508008547A5
:100440003EC28A8513050540F9B7011122CC26CAA0
:100450004AC84EC652C42A8406CE2E89B284368A31
:10046000BA896137BD47014563F0270523200400A1
:1004700023262401FD575CCC2322440193E714007A
:100480002324340193F644001CC0A1885C4C05452C
:1004900081C613D56701058999C4014701C5D58374
:1004A00013F717003A857DD1F2406244D2444249A5
:1004B000B249224A05618280484D198105898280AE
:1004C000411122C406C62A842285FD3775DDB2405B
:1004D000224441018280484D1D81058982800CD5CE
:1004E0008280411122C426C24AC006C62A89AE842F
:1004F000328419E4B240224492440249410182808C
:1005000083D704004A8589042324F902553F7D14CA
:10051000CDB7484D15811345150005898280484D9A
:100520001581058982805C4D93F70702EDDF82809B
:100530004851420541818280411122C426C24AC0ED
:1005400006C6AA842E843389C50063182401B240EC
:10055000224492440249410182802685E937DC50D9
:100560000504A30FF4FED5B75C4D93F7070291E3A2
:1005700082805C51D5BFB71708002A8713850740D2
:1005800018D53DBF411122C43704000226C283247E
:10059000C4082326A4082E8506C6F13FB2402326B0
:1005A00094082244924441018280411122C406C62B
:1005B0002A840345040009E5B240224441018280B7
:1005C0000504553FFDB75971A6D2D2CCD6CADAC8B8
:1005D000DEC6E2C4E6C286D6A2D4CAD0CECEEAC077
:1005E0006EDEAA87AE84130A5002930A0003130B2F
:1005F000A002930BC004130C0002A94C03C5070012
:1006000063060522138917006311450903C5170006
:100610006310550903C52700138937008547631602
:10062000650B804013874400635504003304804009
:10063000894703450900BA8405091377F50D631747
:1006400077010345090093E7470005096300051E8C
:10065000930600062A8763F6A600130705FE1377A4
:10066000F70F9306F004630ED70C63E3E6069306D8
:1006700030046302D70C9306400429466304D70C68
:10068000930620040946630FD70AF535A68969A0A9
:100690001307D0026306E50013892700814741B79D
:1006A00003C5270013893700894795BF3304940396
:1006B00005092A940345F9FF130404FD130705FDFA
:1006C0001377F70FE3F4E6FE8DBF0144A546FDB7AF
:1006D000930650056309D7089306800541466303D6
:1006E000D70693063005E312D7FA03AD04009389C9
:1006F00044000147B306ED0083C60600BA8405072F
:10070000F5FA898B938D140081E763EA8400EE8407
:100710006A85613D63EC8400CE84CA87C5B5130544
:1007200000023EC2893D9247EE84E9BF13050002F4
:1007300099358504C5B703C5040093894400253D58
:10074000E1BF214693F647009389440099CE930573
:10075000400494406312B70263D00602B306D0404F
:1007600093E7070111A82946F1BF930640046314DB
:10077000D7009440D5B79440930580071D47631474
:10078000B5001307700208081378F70F81452A8D0A
:100790002543B3F8C602368E13F7F80FB3D6C60258
:1007A0006375130142971377F70F130707032300AD
:1007B000E500938D15006366CE000505639D8D05EC
:1007C000FD4513F7070109CB1818BA9D1307D0028E
:1007D0002380EDFE938D250013F71700130500030A
:1007E00019E313050002EE8413F727009387140022
:1007F00001E763E48402BE84FD1DB307BD0103C5A8
:100800000700953BE39A0DFEE3F884F01305000220
:100810009D338504D5BFEE85ADBF3AC63EC42AC21E
:10082000993BA24732471245BE84C9B7B6502654F9
:1008300096540659F649664AD64A464BB64B264C5C
:10084000964C064DF25D656182804111B70700024A
:1008500022C426C24AC006C603A9C708AE8423A67E
:10086000A7083E8403C5040009E923262409B240F1
:10087000224492440249410182808504ED39DDB76A
:1008800039712ED24C1006CE32D436D63AD83EDA52
:1008900042DC46DE2EC6053BF24021618280397182
:1008A00022CC2A83370400022E852C1006CE3EDA95
:1008B00032D436D63AD842DC46DE232464082EC62B
:1008C0001933832784082324040823800700F24077
:1008D000624421618280397122CC3704000226CA29
:1008E0008324C4082A832E852C1006CE32D436D613
:1008F0003AD83EDA42DC46DE232664082EC6E131D1
:10090000F240232694086244D2442161828001117E
:1009100026CAAA8437C500801305052E22CC4AC8F2
:1009200006CE4EC632843689A13F8947631DF90041
:1009300037C9008083D504001305092F7D1489046D
:1009400081376DF8B9A09147631CF90037C9008061
:100950008C401305892F7D1491041D3775F815A857
:1009600085476318F9020149B7C9008009A8B38710
:10097000240183C507001385892E05091137E34833
:1009800089FE13050002C53E01499309E005634A4B
:1009900089006244F240D2444249B2492945056186
:1009A000D9BEB387240103C50700930705FE93F75B
:1009B000F70F63F4F9001305E002753E0509C1BFA6
:1009C000B707000203A7470835CF797122D426D292
:1009D0004AD04ECE56CA5AC85EC606D652CCAA8453
:1009E000BE890144B54A214BFD4B1389F5FF83A70E
:1009F0004908829709C9630055056312650365D8E4
:100A00007D14953EEDB70145B250225492540259DF
:100A1000F249624AD24A424BB24B45618280E3D8E6
:100A2000ABFCE35624FD130A140026942300A40013
:100A3000993652846DBF2694294523000400253E33
:100A40000545D9B701458280411122C4370400020F
:100A500026C2AE8783244408B2852322A4083E859B
:100A600006C6B93FB2402322940822449244410171
:100A700082802A8723A0050013060002144383C73F
:100A800006006385C7061306D00201486398C700B5
:100A9000938716001CC383C71600054893060003FE
:100AA000639FD706144313062006938716001CC3C2
:100AB00083C71600638FC702130680076392C704BB
:100AC000938726001CC383C72600414581469308AF
:100AD000000213030006414EA54E63EBF8046304C5
:100AE0000800B306D04094C105458280850614C332
:100AF00071B7938726001CC383C726000945F9B741
:100B0000930600020545E3F2F6FE938607FD93F691
:100B1000F60F25462145E37BD6FA01458280938670
:100B200007FD93F6F60F2546E369D6FE294579BF02
:100B30006375F300811793F7F70F138607FD13769C
:100B4000F60F6378CE00938797FC13F6F70FE3F662
:100B5000CEFCE374A6FCB306D5021C43B296138602
:100B6000170010C383C717008DBF411122C426C2CE
:100B700006C6B70705009C43371400029304C48CD3
:100B800085079CC0EF20C0439840B7470F0093876C
:100B900007243307F70288C49307C48CB376E502B1
:100BA0008DCA0547D8C3D843B70749007D171377C7
:100BB000F73FD8C398431367170098C323A60700CD
:100BC00023A4070023A60700B24022449244410117
:100BD00082803355E5020547E375A7FCC8C3E1B73A
:100BE00041113717000206C61307C78CB707490023
:100BF000CC47544388471C431047B387D702B746B6
:100C00000F0093860624B387D702814633B8A70224
:100C1000B385F5023385A702C295EFA04013B24019
:100C20004101828041113717000206C61307C78CA5
:100C3000B7074900CC47544388471C431047B38744
:100C4000D7029306803EB387D702814633B8A70206
:100C5000B385F5023385A702C295EFA0400FB240DD
:100C600041018280411122C426C206C62A848D3FDA
:100C7000AA84BD37B3079540E3ED87FEB240224416
:100C8000924441018280411122C426C206C62A84B0
:100C9000513FAA84413FB3079540E3ED87FEB24040
:100CA0002244924441018280B70705002147D8CBF6
:100CB0000947D8CB8280411106C6FD37B2400145B5
:100CC00041018280411122C406C62A84EF20402FB0
:100CD000B70705009C432167130707D08507B35763
:100CE000F5021305803EB3D7A7020D651305759C69
:100CF000B387A702B3D7E70219C4BE82FD12E39FF0
:100D000002FE7D147DF8B2402244410182804111EF
:100D100022C406C62A84EF20A02AB70705009C43F8
:100D20002167130707D08507B357F5021305803EE7
:100D3000B3D7A7022945B387A702B3D7E70219C4DF
:100D4000BE82FD12E39F02FE7D147DF8B240224474
:100D5000410182800145828001458280A5B745BF5F
:100D6000011122CC06CEB7070500216702C002C4DC
:100D700002C6D8CF5841B7070001938707F07D8F8F
:100D8000C167938707102A846316F70085679387E6
:100D900007803EC0374508008D478A85130505400A
:100DA0003EC2EF00D01B834744001D476364F70237
:100DB00037C700808A071307871DBA979C4382872D
:100DC00093070002374508003EC08A851305054099
:100DD000EF00F018F240624405618280930700083A
:100DE000D5B791473EC08A8537450800D5B7C1477A
:100DF000D5BF93070008FDB793070020E5B78567C7
:100E000093870780C5B78967F1BF18411C5F93E7D7
:100E100007101CDF828018411C5F93F7F7EF1CDF7F
:100E200082801841BD891C5FC19B1CDF1C41985FFB
:100E3000D98D8CDF82801841920593F5F50F1C5FE8
:100E400093F7F7F01CDF1C41985FD98D8CDF82800F
:100E500018411166130606F0545F5C5F8583F18FBD
:100E600071761306F60FF18ED58F93E727005CDFBE
:100E7000828018411166130606F0545F5C5F85831B
:100E8000F18F71761306D60FF18ED58F5CDF8280DD
:100E900018415C5FF99B5CDFE9BF184111661306DE
:100EA00006F0545F5C5F8583F18F71761306F60F51
:100EB000F18ED58F93E717005CDF59BF144183474C
:100EC00045009165D05ED85E938505F09207058355
:100ED0006D8FD98F71771307F708718FD98FDCDE8B
:100EE0008280411106C622C426C22A84953D1C4038
:100EF0009164138704C0D8DF2285453722857D3F62
:100F0000184003465400938404F0545F5C5F0A0663
:100F10008583E58FD18F71761306F60FF18ED58F0D
:100F2000834664008E06D58F5CDFB2402244924433
:100F3000410182801C410547F8C382801C4123A0E7
:100F4000070482801C410547B8C3828018413C4792
:100F5000FDDF82801C41E8474205418182804111CA
:100F600022C406C62A84DD371C40B2402244E8472A
:100F70004205418141018280B7070500130700083F
:100F8000D8C782801C415841D8C3828018411C4771
:100F90008A0789831CC718418347C5001447FA078D
:100FA000D58F1CC782801441370700FC7D179C46F3
:100FB000F98F9CC618418347E5001447EA07D58F8F
:100FC0001CC782801441370700D07D179C46F98FDB
:100FD0009CC618418347D5001447F207D58F1CC71C
:100FE00082801841B70600021C47D58F1CC71C41E0
:100FF000184598C31441370700FE7D179C46F98FAA
:101000009CC68280411106C622C42A84B537228537
:10101000B53F2285453F228579371C405840D8C3CB
:10102000B24022444101828018411C47858BF5FF64
:1010300082809307000463E3C708411122C426C2DB
:101040004AC006C62A89AE843284613F814663E87D
:101050008600B24022449244024941018280338595
:10106000D4001386360083250900034705009387C3
:10107000160063768602269603482500034606007E
:10108000A69783C7070062072208518FC2073367FC
:10109000E8005D8F98C193874600BE864DBF63FC14
:1010A0008700A69783C7070022075D8F2390E5007E
:1010B00093872600DDB72380E500C5B78280C1474E
:1010C00063ECC702411122C426C24AC006C6AA84E4
:1010D0002E8932843937814763988700B240224491
:1010E0009244024941018280139727004A97144392
:1010F0009840850714C3CDB78280411106C62D37AD
:10110000B240B707080003A5074041018280B70736
:10111000050013070004D8C7828018415C4793E795
:1011200007105CC7828018415C4793F70720EDDF0A
:10113000828018412302B50086055C47E59BDD8D62
:101140004CC782801841A302B5008E055C479D9B69
:10115000DD8D4CC7828018412303B50096055C479E
:1011600093F7F7F9DD8D4CC782801841A303B500D2
:101170009E055C4793F7F7F7DD8D4CC7828081476A
:101180006399C7000347550089476312F7028147F7
:1011900029A8139727002E9714411843850798C64E
:1011A000C5B71841850723240700E39CC7FE82804A
:1011B00083474500094781466369F7003707000206
:1011C00013074705BA9783C6070018415C47F99B88
:1011D0005CC781476393F600B9B7139727002E9732
:1011E00010411843850758C2F5B7411106C622C4FD
:1011F0002A84313F834544002285253F834554009E
:1012000022858937834564002285B1378345740080
:1012100022852244B240410189BF797122D426D26D
:101220004AD04ECE52CC06D68347450009472A8481
:10123000AE89328AB68401496369F7003707000234
:1012400013070705BA9703C90700B3F7240389EB0F
:1012500018405C47F99B5CC702C2924763EA97005B
:10126000B250225492540259F249624A4561828036
:1012700092473EC492472247CA97636FF700228580
:101280005D3592473EC692473247CA976362F7027E
:101290009247CA973EC2D1B7A247E3F297FEA24750
:1012A00018408A07CE979C431CC3A2478507D1B735
:1012B000B247E3FF97FC1840B24718438A07D2971A
:1012C00098C3B24785077DBF797122D426D24AD010
:1012D0004ECE52CC06D68347450009472A84AE89B4
:1012E000328AB68401496369F700370700021307A1
:1012F0000705BA9703C90700B3F7240391EB184019
:101300005C4793E717005CC702C2924763EA970005
:10131000B250225492540259F249624A4561828085
:1013200092473EC492472247CA97636FF7002285CF
:10133000DD3B92473EC692473247CA976362F70247
:101340009247CA973EC2D1B7A247E3F297FEA2479F
:1013500018408A07CE979C431CC3A2478507D1B784
:10136000B247E3FF97FC1840B24718438A07D29769
:1013700098C3B24785077DBF011122CC06CEB707BF
:101380000500216702C002C402C6D8CF03578500FA
:10139000930710102A846316F700856793870780E8
:1013A0003EC0374508008D478A85130505403EC27B
:1013B0007D265840B7570800631EF70085673EC07A
:1013C000374508008A8513050540512EF2406244D6
:1013D00005618280A107E315F7FE8967CDB7184143
:1013E0001C5F93E707101CDF828018411C5F93F796
:1013F000F7EF1CDF82801841BD891C5FC19B1CDF99
:101400001C41985FD98D8CDF82801841920593F53D
:10141000F50F1C5F93F7F7F01CDF1C41985FD98D27
:101420008CDF828058412305B5001C4393E7C73FFA
:101430001CC3828058411C4393E727001CC3828051
:1014400058411C43F59B1CC3828058411C43F99BA7
:101450001CC3FDB758411C4393E717001CC3D9BFF9
:10146000411106C622C42A84013F5C40228523A084
:101470000700CD370347840085476306F70003471D
:101480009400631BF700B7170500938707C0D84780
:10149000B706C000558FD8C75840B7570800631B20
:1014A000F700B7170500938707C0D847B7060003B2
:1014B000558FD8C75840B7570800A107631BF700DE
:1014C000B7170500938707C0D847B706000C558F9C
:1014D000D8C78345A4002285B13754408347840090
:1014E000034794009042AA072E07D98FD18F9CC240
:1014F000B2402244410182805C41D205D181CCC3FB
:101500008280B707050013070002D8C782804CC14C
:1015100082803707000283270709144193F707FCED
:1015200013E6F700B0C22328F708828037070002CD
:1015300083270709144193F707FC13E60701B0C29C
:101540002328F70882803707000283270709144100
:1015500093F707FC13E60702B0C22328F70882803E
:10156000411106C622C42A846D372285C1372285DF
:101570002244B2404101C1BF370700028327070957
:101580004CC1A20593F7F7EFDD8D1C412328B70866
:10159000ACC3828037070002832707099A0593F7B7
:1015A000F7FBDD8D1C412328B708ACC382803707C9
:1015B0000002832707099E0593F7F7F7DD8D1C418D
:1015C0002328B708ACC382805441371700021307A1
:1015D000878D939726003E971C43370600F87D16AB
:1015E000F18FEE05DD8D1C4192060CC39C43BE9627
:1015F000CCC6828005C5411106C622C42A84113793
:10160000B7070002228523A80708993F4C4022858E
:10161000A537B240224401454101828005458280C0
:1016200058418547B397E70099E10D4582801841FD
:10163000FD15184338437D8F65DB014582801C41D1
:1016400058419C43A8438547B397E7007D8D3355A8
:10165000E50082801C4158419C43A843C147B39791
:10166000E700E98F918333D5E70082801C41584120
:101670009C43A84393070010B397E700E98FA18329
:1016800033D5E70082805441B71700029387878DD6
:1016900013972600BA9798439206799B98C31C41EA
:1016A0009C43BE96D8C682805441B71700029387E8
:1016B000878D13972600BA979843920613671700F1
:1016C00098C31C419C43BE96D8C682801C41584199
:1016D0009C43131847000A07C297CCC31C419C4384
:1016E000C29790C31C419C43C29794C71C45544564
:1016F00086078E06D58FB71600029386868D36979D
:101700001043B7060008F18ED58F14499606D58F81
:1017100054499E06D58F544DAE06D58F1451C6063A
:10172000D58F144DE606D58F54519206D58F14559A
:101730009A06D58F5455A606D58F5459BA06D58F1B
:10174000145DD606D58F1459EA06D58F93E7170096
:101750001CC3184118433A982326F8008280374763
:10176000080093070740AA886304F508B7570800E4
:1017700093870780630BF5086302E50A05458280BD
:101780003395CE00698F29CBD44183A2070013186B
:10179000160033170F011347F7FF8D8AB396060122
:1017A000B3725700B3E6560094C3D441638CF6037A
:1017B0008DCE83260300C845F98E33150501C98EE9
:1017C0002320D30083260E00758F9445339806019D
:1017D000336707012320EE00050698413355C70003
:1017E00045F1828023A6A800E9B723A4A800D1B7B9
:1017F000B7170500138E47C1138307C19387C7C06E
:101800000146854E0D4F914FC9BFB7170500138E86
:1018100007C21383C7C1938787C1DDB7B717050018
:10182000138E87C0138347C0938707C0D1BF0111B0
:101830002EC08A8506CE32C236C43AC60D37F24073
:101840000561828008416D8D3335A000828019E2E8
:101850004CC182800CC182801C49AD8F1CC9828022
:10186000135645009D4763E3C708370700028328E6
:10187000470913182600BD46B396060193C7F6FF25
:10188000B3F71701232AF708832747093315050102
:10189000758D5D8D232AA7088327470937570800D0
:1018A000130707C05CC393F615008547B397C700BD
:1018B00085CA5CCF3757080093F62500130707C089
:1018C00095C25CCB375708009189130707C089CDB3
:1018D0005CD337570800130707C05CC701458280F7
:1018E0001CD3C9BF1CCFF9BF1CD7E5B70545828003
:1018F00011819D4763EFA7028546B7570800B3964D
:10190000A600938707C094CB3706000283254609BB
:101910000A053D473317A7001347F7FF6D8F232AAA
:10192000E608032746090145D8C394CF94D394D73A
:10193000828005458280B7570800938707C0984783
:101940009357450005453315F500798D3335A000D3
:101950008280B757080003A707C011818547B39756
:10196000A700F98F33D5A7008280B7570800938767
:1019700007C01307F00FD8D78280011122CC06CE02
:101980001841B747080002C6938707802A8463116D
:10199000F702B707050013070040D8CF9307006090
:1019A0003EC08A858547374508003EC23EC4453B58
:1019B000184037450800930705C06311F702856793
:1019C00093870780370705005CCF8D673EC08A8507
:1019D0008547130505403EC23EC45133F240624480
:1019E0000561828018411C43F99B1CC38280184109
:1019F000232205041C43F99B1CC318411C4393E795
:101A000017001CC3828018411C4393E717001CC3B6
:101A1000828014414CD57D779C427D17B205F98FA9
:101A20009CC21C419843D98D8CC3828018411C43B1
:101A3000F99B1CC314410CD57D779C421307F70F0B
:101A4000A205F98F9CC218418567938707F014435C
:101A5000FD8DD58D0CC382801841B706F0001C4364
:101A6000F99B1CC318598347050410417207D98F8D
:101A700058595207758FD98F185DB7060F00420766
:101A8000758FD98F585DC166FD162207758FD98F66
:101A90001CCA828018411C43F99B1CC314414CCDC5
:101AA00001779C427D17C605F98F9CC21C41984363
:101AB000D98D8CC382801C411307F00723A4070033
:101AC00014451C41636ED70298471377F7BF98C738
:101AD00018411C451447860793F7F70FD58F1CC78D
:101AE0001C459306F007184163E6F6021447860783
:101AF000D58F1CC71841A1661C47D58F1CC7828093
:101B000098471367074098C718411C45144793F737
:101B1000F73FE9B7144793F7F73FD9BF1C4123A616
:101B2000070018411C4D5447A207D58F5CC71841C8
:101B30001C495447860793F7F70FD58F5CC7584564
:101B400085476317F7001841A1665C47D58F5CC7CE
:101B5000828014414CC93707F8FF9C427D17CE059F
:101B6000F98F9CC21C419843D98D8CC3828014414B
:101B70000CD141779C427D17C205F98F9CC21C4154
:101B80009843D98D8CC38280411106C622C42A8411
:101B90001D37228561374C482285653F0C502285D0
:101BA0002244B2404101E1B78280411106C622C4FD
:101BB0002A84E13322853D354C542285993D0C54CD
:101BC0002285AD352285493D5C40814591C34C4C11
:101BD0002285C9352285053D5C4099C705470545E5
:101BE0006397E70022854D37232804040145B2405E
:101BF0002244410182801441370700FE7D17DC42F8
:101C0000E605F98FDCC21C41D843D98DCCC3828054
:101C100089E585477CC10D4582801C41FD159C4F9F
:101C200093F70704F5D70145828089E585477CC194
:101C30000D4582801C41FD159C4F93F70708F5D791
:101C400001458280AA8789E50547F8C30D4515A897
:101C50009843184F1375070109C50947F8C305458F
:101C600082809376073099CA9376071099C20D4700
:101C7000F5B79376072099C21147CDB7098BFD15AB
:101C800079D3828089E585477CC10D4582801C41DE
:101C90009C4F13F7073009CF13F7071009C78D477B
:101CA0007CC10545828013F7072019C39147CDBF3A
:101CB000918BFD15E1DB0145828018415C4393F770
:101CC00007C05CC31307F0071C41636EB700D8431D
:101CD000FD769386F67F758FD8C31C418605D84361
:101CE000D98DCCC38280D843856693860680558F74
:101CF000D8C314417D777D17DC4293F5F53FF98F0A
:101D0000DCC21C41D843E9BF10412A87A1661C4EA2
:101D100033F5D70011E182809387F5FF89E5854788
:101D20007CC30D458280BE85DDB71041370701FFBA
:101D30007D1754429305F00FF98E54C2744D304D07
:101D4000158E144163E9C502D042718FD8C2144187
:101D50006C4D384DD0420D8F4207B705FF006D8F97
:101D6000518FD8C21041B70600FFFD165842758F3B
:101D700058C24C5149B5D042718FD8C21441370670
:101D8000FF00D842518FD8C21841B70600015C430A
:101D9000D58F5CC38280797122D426D24AD04ECEB0
:101DA00052CC06D656CA5AC85EC662C466C2B6844B
:101DB000BA899306F00F370701FF1C412A842E8A47
:101DC00032897D1763E89608D443814C758FD8C358
:101DD0001841939704015443D58F5CC314413707CE
:101DE00000FF7D17DC42F98FDCC24C512935D285CA
:101DF0002285E13518408966370A01FF5C43B70A3E
:101E000000FF130CF00F93F7F7BF5CC318407D1A67
:101E1000B70BFF005C43370B0001FD1AD58F5CC385
:101E2000CA946391240763960C081C40370700028C
:101E3000CE85DC432285F98FA5C32254B25092543B
:101E40000259F249624AD24A424BB24B224C924C5E
:101E500045615DBDD443938414F0939C0401758F58
:101E6000D8C31841B706FF0093DC0C015C43930410
:101E7000F00FD58F5CC31841B70600015C43D58FC6
:101E80005CC3B5B7CE852285753B59E5034709008C
:101E90001C40050998D771B72254B2509254025988
:101EA000F249624AD24A424BB24B224C924C4561B3
:101EB00085B3CE852285953B25E11C4063679C0355
:101EC000D8432285E68433774701D8C318409397D7
:101ED0000C01814C5443D58F5CC318405C43B3F76D
:101EE00057015CC34C50013B25BFD84393841CF081
:101EF000939C040133774701D8C3184093DC0C014D
:101F00009304F00F5C43B3E777015CC318405C4374
:101F1000B3E767015CC329B7B25022549254025907
:101F2000F249624AD24A424BB24B224C924C456132
:101F30008280797122D44AD04ECE52CC56CA06D66F
:101F400026D25AC85EC662C466C26AC0B6893A8AD8
:101F50009306F00F370701FF1C412A84AE8A3289AD
:101F60007D1763E93609D4438144758FD8C318417E
:101F7000939709015443D58F5CC31441370700FF81
:101F80007D17DC42F98FDCC24C51B531D6852285F4
:101F90002D3318408966B70A01FF5C43370B00FFF9
:101FA000930CF00F93E707405CC31840FD1A370C01
:101FB000FF005C43B70B00017D1BD58F5CC3330D65
:101FC00039016310A907D1E41C4037070002D2850C
:101FD000DC432285F98FA5C32254B2509254025992
:101FE000F249624AD24A424BB24B224C924C024DC9
:101FF000456119BBD443938919F093940901758FF6
:10200000D8C31841B706FF00C1805C439309F00FA5
:10201000D58F5CC31841B70600015C43D58F5CC304
:10202000B5B7D2852285B93951E91C400509DC5381
:10203000A30FF9FE79B72254B25092540259F249D3
:10204000624AD24A424BB24B224C924C024D4561FD
:10205000C1B6D2852285D13E35E11C40984F137719
:10206000070831DF63E79C02D8432285A6893377CE
:102070005701D8C318409397040181445443D58F26
:102080005CC318405C43B3F767015CC34C50A53692
:102090003DB7D843938414F0C20433775701D8C3B3
:1020A0001840C1809309F00F5C43B3E787015CC31C
:1020B00018405C43B3E777015CC311B7B2502254B8
:1020C00092540259F249624AD24A424BB24B224CD4
:1020D000924C024D4561828018411C4FA18B99C3DF
:1020E000014582809387F5FF89E585477CC10D45D1
:1020F0008280BE85DDB714412A87370502009C42E5
:102100007D8D31EDB1CD9C4E13F6073019C613F617
:10211000071005E293F7072085E79C4EFD15898B94
:10212000F5D382809C4E13F6077015C213F6071084
:1021300009C68D477CC30545828013F6072019C266
:102140009147CDBF13F6074019C29547E5B713F580
:10215000070219C19947F9BF898BFD15F9F3F9F108
:1021600085477CC30D4575BF14412A87370502009A
:102170009C427D8D29EDA9CD9C4E13F6073019C6E2
:1021800013F6071019EE13F607201DE2918BFD15CB
:10219000FDD382809C4E13F6077015C213F607100C
:1021A00009C68D477CC30545828013F6072019C2F6
:1021B0009147CDBF13F6074019C29547E5B713F510
:1021C000070219C19947F9BF918BFD15F9F3F9F190
:1021D00085477CC30D4575BF011122CC26CA4EC66A
:1021E00052C406CE4AC8B6841441370700FF7D1793
:1021F000DC422A84AE89F98FDCC21C413707020019
:10220000328A9C43F98F85EBA685F93531E9184070
:102210005C4F93E787005CCF1C409C4793F70740D7
:1022200085EF18401C4F93E717001CCF18405C4FF8
:1022300093E787005CCF1C4003C70900054998D786
:10224000A685228563664903C13419E918401C4FED
:1022500093E717001CCF25A0A6852285B53D71D137
:10226000F2406244D2444249B249224A0561828026
:1022700059351C4019C9984F1367170098CF18405B
:102280005C4F93E707025CCFE1BF33872901034727
:102290000700050998D76DB7011122CC26CA4EC692
:1022A00052C406CE4AC8B6841441370700FF7D17D2
:1022B000DC422A842E8AF98FDCC21841B70602005C
:1022C000B2891C43F58F95E7A685393505E9184095
:1022D0005C4F93E787005CCF0149A6852285636741
:1022E00039031D3401ED18405C4F93E707025CCFC2
:1022F00031A01C4341670545F98FF9DFF240624484
:10230000D2444249B249224A05618280B13D7DF5FD
:102310001C40D853B3072A0105092380E70075BF85
:1023200099E10D4582801C41FD159C4F93F70708EC
:10233000E5DB01458280144161777D17DC42F98F2E
:10234000DCC282801841A1665C43D58F5CC3828069
:10235000144161777D17DC420145F98FDCC2828030
:10236000797126D206D622D44AD04ECE52CC56CA45
:102370005AC85EC61C41C1649843658F61C39843C7
:10238000B70702007D8F854725E32E8AB6852A840C
:10239000B28936899133AA8721E91C40B70600012A
:1023A000B70A01FFD843FD1A138BF9FF558FD8C325
:1023B0001C40C16BD84333775701D8C318405C43E6
:1023C000C58F5CC3184081445C4F93E787005CCFA6
:1023D000CA85228563E63403053AAA8711E51440CD
:1023E000D84E13670702D8CEB250225492540259E5
:1023F000F249624AD24A424BB24B3E8545618280E5
:102400000537AA8775F11C40A6864E86D853B307B8
:102410009A00D2852380E70022851D3FAA8769F5AF
:10242000636C9B0018405C43B3F757015CC31840D2
:102430005C43B3E777015CC3850459BF85476DB73B
:102440009307F00F63E0D708011106CE22CC26CA0D
:102450004AC84EC6B6841441370701FF7D17DC42D7
:10246000AE892A84F98FDCC218419397040132891E
:102470005443D58F5CC34C51EFF0EFF7CE852285E6
:10248000EFF0BF8318409166CA855C4393F7F7BFAE
:102490005CC318401C43D58F1CC31040284493864E
:1024A000F4FF13068602EFF06FA21840896601451B
:1024B0005C43D58F5CC3F2406244D2444249B24986
:1024C0000561828005458280011106CE22CC26CA94
:1024D0004AC832C69307F00F63E8D706B6841441A2
:1024E000370701FF7D17DC422E892A84F98FDCC271
:1024F0001841939704015443D58F5CC34C51EFF0BE
:102500008FEFCA852285EFF04FFB1840A166324657
:102510005C4393E707405CC318401C43D58F1CC342
:102520000C4068449386F4FF93854502EFF00F9AC0
:102530001840896601455C43D58F5CC3F240624414
:10254000D2444249056182800545CDBF411122C474
:1025500026C24AC006C61841368991661C432A84A1
:102560008144D58F1CC31C4128459306F6FF138672
:102570008702EFF0AF951440370700FF7D17DC426C
:10258000F98FDCC21C40370702009C43F98F95EBA2
:10259000CA8522859136AA840DE518405C4F93E7E1
:1025A00087005CCF1C409C4793F7074095E3184099
:1025B0001C4F93E717001CCF18405C4F93E7870030
:1025C0005CCFB24022440249268592444101828078
:1025D000CA852285113661DDAA84E5B7411122C47E
:1025E00026C206C61841B684A1661C432A84D58F2C
:1025F0001CC31C4168459306F6FF2E86938547024F
:10260000EFF0CF8C1440370700FF7D17DC42F98FC5
:10261000DCC21840B70602001C43F58F99EFA6856F
:1026200022855D3C11E518405C4F93E787005CCF45
:10263000B24022449244410182800843418105898D
:10264000C5BF1C4193F5E50F93C5F5FF9843F98D80
:102650008CC382801C4193F5E50F9843D98D8CC3C0
:102660008280011106CE22CC854734CD70C93CC989
:10267000232E05042A842EC6EFF02FEBB2452285C7
:10268000EFF0AFE3184022859305E00F5C4393F72A
:10269000F7BF5CC37D3722859305200D653F184049
:1026A000896601455C43D58F5CC3F2406244056195
:1026B0008280011106CE22CC854734CD70C93CC939
:1026C000232E05042A842EC6EFF02FE6B24522857C
:1026D000EFF0AFDE184022859305E00F5C4393E7EF
:1026E00007405CC3B93F22859305C00CA53718404D
:1026F000896601455C43D58F5CC3F2406244056145
:102700008280411122C406C6144185473CC96CC968
:1027100030CD232E0504DC42370700FF7D17F98FEB
:10272000DCC21C41C1662A849843758F19C798433F
:10273000B70602000545758F0DE7784C2285930694
:10274000170074CCBA9503C705009305E00F98D71E
:102750007C4885077CC8F53522859305A00ADD3DB8
:102760000145B240224441018280411122C406C683
:10277000144185473CC96CC930CD232E0504DC4289
:10278000370700FF7D17F98FDCC21C41C1662A8420
:102790009843758F19C79843B70602000545758F92
:1027A0000DE7784C22859306170074CCBA9503C7C1
:1027B00005009305E00F98D77C4885077CC8513504
:1027C00022859305200A79350145B2402244410112
:1027D0008280411122C406C6144185473CC96CC998
:1027E00030CD232E0504DC42370700FF7D17F98F1B
:1027F000DCC21841C1662A841C43F58F99C71C436B
:10280000370702000545F98F91EB9305E00F22850C
:102810000D3D22859305C00A353D0145B240224455
:1028200041018280411122C406C6144185473CC93A
:102830006CC930CD232E0504DC42370700FF7D171D
:10284000F98FDCC21841C1662A841C43F58F99C7F1
:102850001C43370702000545F98F91EB9305E00F04
:102860002285C53322859305400AED330145B240E8
:10287000224441018280411106C622C426C28547F6
:102880003CC91C416CC930CD232E05049843C16658
:10289000758F0DCB844337070200F98C85E4D8434C
:1028A000B70600019305E00F558FD8C32A84513B2A
:1028B0009305C00A2285793BB24022442685924482
:1028C000410182808544CDBFF367043085679387DB
:1028D0000780F3A747308280856793870780F3B727
:1028E000473082803707050083270740C98F2320A0
:1028F000F7408280B707050093870740D843498F88
:10290000D8C38280B7070500938707409847498F4F
:1029100098C78280B707050093870740D847498F3B
:10292000D8C78280B707050093870740C84F8280C9
:10293000B70705009387074088538280B7070500D3
:1029400013070002D8CB82801441370700F07D17AF
:10295000DC4AF2054111F98FDD8DCCCA02C613079E
:10296000703EB2476354F70041018280B247850749
:102970003EC6C5BF1441370700F97D17DC4AE205A2
:10298000F98FDD8DCCCA82801441370700F87D179E
:10299000DC4AEE05F98FDD8DCCCA82800323050069
:1029A000B7070500D44383A8070003A8470283257F
:1029B0004301032F8301032EC301937E3800137854
:1029C00028000146631408001306803EF91E85475F
:1029D00063E6D70137460F001306062493F6F60F79
:1029E00093F8F80F85068508B38616039307005001
:1029F0003386C60233D7C70233F6C70211C20507B2
:102A0000814763180800B7771800938707A0B3C7FA
:102A1000D70205466366D60193070064B3C7D702A1
:102A20001316870093F6858FB705F9FFD18EFD1534
:102A3000ED8E93150701CD8E232AD300137F8FFFD0
:102A400014413367E7011377F78F518F98CE184100
:102A5000370600FF337ECE00B3E7C7015CCF82802C
:102A600018411C47F99BCD8F1CC72302B5008280FB
:102A7000411106C622C42A84D13522850537228514
:102A80008545CD3D8345440022852244B240410125
:102A9000C1BF18415C47858BF5FF8280011122CCB4
:102AA00026CA4AC84EC606CE1C419D89C1052A8445
:102AB000B2893689CCC3814463992401F2406244CF
:102AC000D2444249B2490561828093972400CE974F
:102AD00018409C43228585041CC3653FF1BF184103
:102AE000A14654C31C418CC36DB71841E14654C381
:102AF0001C418CC379BF011122CC26CA4AC84EC6DC
:102B000006CE1C419D892A84B2893689CCC3814472
:102B100063992401F2406244D2444249B2490561BA
:102B2000828093972400CE9718409C432285850489
:102B30001CC38537F1BF011122CC26CA06CE4AC874
:102B40004EC6034745008547AA842E84631DF702BD
:102B50003289B389B60063193401F2406244D24429
:102B60004249B2490561828098409377740093E7A7
:102B700007015CC32685313F9C40050411099C4335
:102B8000232EF9FEC9BF1C4113F475004104C0C3D4
:102B90001C419C431CC28147E381D7FC98400C43F5
:102BA0001397270032970CC38507FDB7411122C444
:102BB00006C61C4121472A84D8C3034745008547E0
:102BC0006319F700F9351C40B240224488434101A3
:102BD00082801C419C43C5BF411122C406C61C41D2
:102BE00061472A84D8C30347450085476319F70026
:102BF0004D351C40B24022448843410182801C4133
:102C00009C43C5BF011122CC26CA06CE4AC84EC677
:102C1000034745008547AA842E84631BF702328947
:102C2000B389B60063193401F2406244D244424988
:102C3000B249056182809C40137774002685D8C311
:102C4000893D9C40050411099C43232EF9FED9BF00
:102C50001C4113F47500C0C31C419C431CC2814736
:102C6000E384D7FC98400C431397270032970CC39A
:102C70008507FDB79147630AF50263E9A700854719
:102C8000630AF5008947630DF5008280A14763045C
:102C9000F5028280370706005C4BF59B5CCB828097
:102CA000370706005C4BF99BD5BF370706001C4B66
:102CB000F59B1CCB8280370706001C4BF99BD5BFC8
:102CC0009147630CF50263E9A7008547630AF500A5
:102CD0008947630EF5008280A1476307F502828071
:102CE000370706005C4B93E727005CCB82803707F1
:102CF00006005C4B93E71700CDBF370706001C4B5F
:102D000093E727001CCB8280370706001C4B93E714
:102D10001700CDBF85476303F5028947630FF504AC
:102D200025E5B7060600DC4A7D771307F73FF98FE4
:102D3000DCCA82807D1701EF0D458280856793860E
:102D4000078037A7070013070712370605001C5E28
:102D5000E98FEDD3370606005C4A7D771307F73F0E
:102D6000F98FD58F41115CCA02C613073006B247EE
:102D70006358F70001454101828093060040D1B7B6
:102D8000B24785073EC6E5B7054582809147630790
:102D9000F50263EAA7008547630AF50489476309DA
:102DA000F50405458280A147E31DF5FE0947094565
:102DB00001A8FD1781EFC8D20D45828005470D455A
:102DC000B7A7070093870712B7060500905E798EB4
:102DD0006DD28A054D8D4111C8D202C61307300647
:102DE000B247635AF7000145410182801147C9BFCC
:102DF00021470145F1B7B24785073EC6D5B785479C
:102E00006303F50289476302F50625E9B706060064
:102E10009C4A7D771307F73FF98F9CCA82807D1704
:102E200019EB0D4582809306004037A70700130772
:102E30000712370605001C5EE98FF5D33707060039
:102E40001C4B7D761306F63FF18FD58F1CCB232CC0
:102E5000070085471CCF411102C613073006B24751
:102E60006359F70001454101828085679386078099
:102E70006DBFB24785073EC6DDB70545828011C9E3
:102E80008547630DF50205458280FD1791EB0D45E1
:102E900082800946B7A7070093870712B706050087
:102EA000985E718F7DD34111C8D602C613073006D4
:102EB000B2476357F7000145410182800546D9BFFB
:102EC000B24785073EC6EDB7B707050088C38280C5
:102ED000B7070500C8C38280B707050088C782808E
:102EE000011106CE22CC26CA4AC84EC652C456C2CA
:102EF000B7040600DC482A892E84F19BDCC89C4874
:102F0000F19B9CC8D84883C7C501137737C08A078F
:102F1000D98FDCC883C7D50198488A07137737C093
:102F2000D98F9CC8C845FD330C44AA8A0345440088
:102F3000B13D1848B70705002A8A98C35848D8C336
:102F4000184C98C70850653DAA8948500D3F034763
:102F50000400AA87058B09E7D84813672700D8C85B
:102F600003470400098B19E7B7060600D84A136720
:102F70001700D8CA03470400118B19E7B7060600EB
:102F8000984A1367270098CA03470400218B19E762
:102F9000B7060600984A1367170098CAF2406244C1
:102FA0002320590123224901232439012326F90032
:102FB000D244B249224A924A4A85424905618280F6
:102FC000B7070500DC53054721658D8BF91763763C
:102FD000F7003755E801130505808280B707050023
:102FE00013070010D8CB828014418967938707713B
:102FF00037060010984A718F01CBFD17E5FF3707A0
:1030000000109C4AF98FF5FF8280370706001307EE
:1030100007401C4B860785831CCBF9B7B707060012
:1030200093870740984BB7060080558F98CB6DBFAC
:1030300003C81500A94603C62500B357D80203C725
:10304000350083C5050083280500E2053378D802E2
:10305000DA074A08B3E70701CD8FB355D6023376B6
:10306000D602BE05CD8F2E06D18F3356D7023377C9
:10307000D7022206D18F1207D98F23A0F800ADB74F
:1030800083C80500294783C61500B3D7E80203C8E3
:10309000350003C62500B3F8E802DE07B3F5E60203
:1030A000CE08B3E71701CD8FB355E8023378E802B5
:1030B000BE05CD8FB355E6022E08B3E70701337680
:1030C000E602AA05CD8FB3D6E6021A061841D18FC3
:1030D0009206D58F5CC309BF03C81500A94603C675
:1030E0002500B357D80203C735008328050033787D
:1030F000D802DA074A08B3E7070103C805006208E7
:10310000B3E707013358D6023376D6023E08B3E759
:1031100007012E06D18F3356D7023377D702220606
:10312000D18F1207D98F9845D98F23A4F8006DBD90
:1031300083C84500294783C65500B3D7E80203C8B2
:10314000750003C6650003230500B3F8E802DE0737
:10315000CE08B3E71701B3F8E602B3E71701B35897
:10316000E8023378E802BE08B3E717012E08B3E798
:1031700007013358E6023376E6022A08B3E707016F
:10318000B3D6E6021A06D845D18F9206D58FD98FCD
:103190002326F30091BD411122C426C206C62A840B
:1031A000AE841D3F22852244B240A685924441014F
:1031B00041B7411122C406C618412A841C47920710
:1031C00091831CC715351440370700887D17DC46EE
:1031D0002285F98FDCC62244B240410131B5144149
:1031E000370700C07D179C4AF98F9CCAF5BB1C416C
:1031F000884B7981058982801C41A9454111D843BA
:10320000410193577701BD8BB387B702135537013F
:103210003D899376F700135667003D8AAA971355A8
:1032200047000D893305B50293F7F70F369593568E
:10323000A700858AB386B6021375F50F2205C98FDC
:10324000B2961356F7003D8A3306B6022D833D8BA6
:1032500093F6F60FC206D58F3297131587015D8D51
:1032600082801841A94841111443032807000843EC
:103270000C43135868011C43104313783800BD8178
:10328000330818039D8921821D8A184349813D898D
:10329000AD83BD8BE182B385150342951183137510
:1032A000F50F3D8B9D8A2205558D4101330616038E
:1032B000AE9793F7F70FC2075D8D32976207598D6E
:1032C000828014412302B500370700E09C4A7D1735
:1032D000F605F98FDD8D8CCA01BB83454500D5B756
:1032E0001C41884B758105898280011122CC06CE54
:1032F00026CA184102C402C6B73708002A846318D8
:10330000F70413070010B7070500D8CF9D44854781
:103310008A85374508003EC226C0EFE04FC4834788
:10332000E4003547638EE70A6361F70A6384970C0C
:103330002D47638FE70AA1473EC05C400547639372
:10334000E7003EC48A8537450800EFE04FC11840CA
:10335000B7370800938707406314F7061307002068
:10336000B707050037450800D8CF9D4485478A85B3
:10337000130505403EC226C002C4EFE04FBE83479E
:10338000E40035476387E708636FF70663899708AA
:103390002D476383E708374508008A8513050540F4
:1033A000EFE0EFBBA1473EC05C4005476393E700F9
:1033B0003EC4374508008A8513050540EFE02FBA63
:1033C000F2406244D244056182803947E395E7F6D2
:1033D000C1473EC08A8537450800EFE04FB8A1BF1E
:1033E0009167374508003EC08A8513050540F5B74B
:1033F000A167C5BF93070004375508003EC08A8502
:1034000013050580D9BF3947E397E7F8C1473EC0A8
:1034100059B793070002E5BF93070004CDBF930798
:103420000008F5B71441370701FF7D179C4EC20510
:10343000F98F9CCE1C41984FD98D8CCF828014413E
:1034400041771307F70F9C4EA205F98F9CCE1C41C4
:10345000984FD98D8CCF828018411C4F93F707F07D
:103460001CCF1C41984FD98D8CCF82801C41CCD36E
:1034700082801C41A306B5008CD782801C4103A525
:10348000C70F828018415C4B93E747005CCB82807A
:1034900018415C4B93E787005CCB8280011106CE1C
:1034A00022CC1841230805002A845C4BF99B5CCB95
:1034B000C5372285C13F1C40F2406244DC433EC612
:1034C000B24705618280411122C406C62A84F937B9
:1034D0001C400547D8CBB2402244410182801841AC
:1034E0005C4BF99B5CCB5DBF19E1054582804111C6
:1034F00006C622C42A84D53B22854D372285C5378E
:1035000058403DCF9307F7FF13B7170003469400C9
:10351000834784009316E6008E07D58F8346A40068
:103520008A06D58F8346B4008606D58F8346C400AD
:10353000A606D58FD98F05476317E60411671307D1
:1035400007C0D98F1840854522851CC3E13D8145C0
:103550002285F5352285814501378347D4002147EF
:103560000545636BF700184001451CD7232E040066
:1035700023220402232A0400B24022444101828013
:10358000A304040061B70347E4002A075DBF1441A8
:103590002307B50071779C421307F73FAA05F98FFF
:1035A000DD8D8CC282801441BD472307F5009C420B
:1035B0001167130707C0D98F9CC2828054D154CDA4
:1035C000144110D10CCD2308050085458CD610413F
:1035D0004111AA87544A858A91E24CCA0146854620
:1035E000854891A888434C41918985C1630F0800A3
:1035F000639D1601944F83C6060054CD944F8506F3
:1036000094CFD44FFD16D4CF814688434C41C18915
:1036100091CDCC5381CD0C5194532380B60094535B
:10362000850694D3D453FD16D4D38546930516004E
:10363000637CE6022E8603A8C701E31508FAC85387
:1036400055F1984311661443F18E89EA544BF99A67
:1036500054CB9443D84A1367C700D8CA9C43DC4371
:103660003EC6B247410182800D45E1BF8547B9C5DD
:1036700031C6A9C6411122C406C60347D5002A8413
:103680000DCB1C41232A05000CCD54CD10D154D1B3
:103690009C431167F98F91E3113518405C4B858B82
:1036A00099E385475CCB18401C4793E777011CC71B
:1036B0008147B24022443E85410182803E8582801E
:1036C000011106CE22CC26CA02C402C62147B75435
:1036D0000800B7070500D8C705448D478A851385BC
:1036E00004803EC022C2EFE08F879307C0038A8523
:1036F0001385048022C222C43EC0EFE04F86F24010
:103700006244D24405618280411122C406C62A84E3
:10371000453F18405C4F93E707015CCF1C401844BD
:1037200098CB58401C400DCB9843B7061000558FDE
:1037300098C35C48184C1440CE075607D98F0347EE
:1037400004014207D98F0347C4016207D98F9CCE79
:10375000B2402244410182809843B706F0FFFD1633
:10376000758FF9B7032E05002A830325CE01136553
:103770000502232EAE000325030010C50326030017
:1037800023260601032503001396260149824D8E48
:1037900050C121666D8E0DC685C20545014799EB66
:1037A00082803385E70003260300034505000507F3
:1037B000230AA600E347D7FE639408020D458280E2
:1037C000E5DE0545814769DFE3D8D7FE0326030020
:1037D000034546013306F70085072300A600EDB731
:1037E00083270300FD18DC4F93F70702F1D711651B
:1037F0006D8D5DD5B707070003C547019377F50FBA
:1038000013F585001D8D3335A000828003A3C5000C
:1038100003AE0501B70818004E0333731301560EAB
:10382000B708E000337E1E013363C30183A805009F
:1038300003CE450133631301620E3363C30103CE2C
:103840008500B7080700420E337E1E01C28803A818
:103850004500B365C30139B71C41C84F0589828053
:103860001C414147D8CF82801C41C84F118113456C
:10387000150005898280011122CC06CE1841B72798
:10388000080002C402C6938707C02A846317F7069C
:10389000B70705002147D8CF03474500994763077D
:1038A000F700034765008547631CF7009307000294
:1038B0003EC08A858947374508003EC2EFD03FEABF
:1038C000034784018547631DF700930700063EC048
:1038D0008A858947374508003EC202C4EFD03FE8D9
:1038E0001C4881EF930700083EC08A858947374509
:1038F00008003EC202C4EFD09FE61840B727080078
:103900006318F706B70705004147D8CF03474400BF
:1039100099476307F700034764008547631DF70075
:10392000930700103EC08A858947374508003EC28C
:1039300002C4EFD0DFE2034784018547631DF7002F
:10394000930700303EC08A858947374508003EC24C
:1039500002C4EFD0DFE01C4881EF930700403EC077
:103960008A858947374508003EC202C4EFD03FDF51
:103970001840B727080093870740631AF706B70770
:10398000050013070002D8CF034744009947630797
:10399000F700034764008547631EF7008567938738
:1039A00007803EC08A858947374508003EC202C469
:1039B000EFD0FFDA034784018547631EF70089676C
:1039C000938707803EC08A858947374508003EC2F5
:1039D00002C4EFD0DFD81C4899EB89673EC08A85C6
:1039E0008947374508003EC202C4EFD05FD7F24096
:1039F00062440561828018411C4BF99B1CCB82807C
:103A000018411C4B93E717001CCB82804111A30384
:103A1000B50022C426C206C6AA842E84E93F9C4073
:103A20000604CC47E5994D8CC0C7B240224492446D
:103A300041018280411122C426C206C62302B5007C
:103A4000AA842E844D3F99479440631EF400DC46BF
:103A5000268593E71700DCC6224483C57400B24074
:103A60009244410165B7B7070500372708009C5B02
:103A7000130607C06394C6027D771307F71FF98FFB
:103A80002604C18F370705001CDB98405C47F99B73
:103A90005CC7B24022449244410182806397E600B1
:103AA00065777D17F98F3204E9BF13070740E39B61
:103AB000E6FC3787FCFF7D17F98F3E04D9B741112B
:103AC00026C22303B500AE8422C406C62A84253745
:103AD00089C88547638FF400B24022449244410173
:103AE00082801440370780FF7D17DC46F98FDCC6E3
:103AF000E5B71840B70680005C47D58F5CC7E9BFC3
:103B0000411122C406C6834545002A8425378345D2
:103B1000640022852244B240410155B7411126C2BA
:103B20002304B500AE8422C406C62A84E93589C8B8
:103B30008547638FF400B240224492444101828061
:103B400014403707C0FF7D17DC46F98FDCC6E5B7A8
:103B50001840B70640005C47D58F5CC7E9BF1841E5
:103B60001C43C18BF5DFC1475CC3828018411C43F5
:103B7000A18BF5DFA1475CC3828018410CCF1C41AB
:103B80009C47C18B91E3E1BF828018414CCB1C4123
:103B90009C47A18B91E3D9BF82804111A304B5005A
:103BA00022C426C206C6AA842E84B1359840C9779D
:103BB000FD174C473604FD8D4D8C40C7B240224462
:103BC00092444101828041112305B50022C426C2DE
:103BD00006C6AA842E8405359840B707FAFFFD175C
:103BE0004C474604FD8D4D8C40C7B2402244924460
:103BF000410182804111A305B50022C426C206C638
:103C0000AA842E84CD3B9840B707F8FFFD174C4798
:103C10004E04FD8D4D8C40C7B24022449244410178
:103C2000828041112306B50022C426C206C6AA849A
:103C30002E84D13398400E045C479D9B5CC79C400A
:103C4000CC474D8CC0C7B24022449244410182808F
:103C50004111A306B50022C426C206C6AA842E843A
:103C6000593B98401A045C4793F7F7F35CC79C40B4
:103C7000CC474D8CC0C7B24022449244410182805F
:103C80004111230CB50022C426C206C6AA842E8484
:103C90009D339840B70700FFFD174C476204FD8D28
:103CA0004D8C40C7B2402244924441018280411170
:103CB00022C426C206C62E84AA84353B9840B70586
:103CC000E0FFFD155C47ED8FB7052000E18DDD8D30
:103CD0004CC7B24022449244410182804111A30268
:103CE000B50022C426C206C6AA842E842933984071
:103CF000B7E7FDFF9387F7DF4C472604FD8D4D8C1A
:103D000040C7B2402244924441018280411106C61C
:103D100022C42A848D362285F9392285D5338345FC
:103D200054002285653F8345C4002285DD3D8345DF
:103D3000D4002285313F834584002285C5338345E5
:103D400094002285993D8345A4002285AD3D83459D
:103D5000B400228545354C4822852244B2404101B9
:103D6000B9B71C41C84F4205418182801C4188433C
:103D70000589828018411C43858BF5DF82804111C3
:103D800006C622C426C22A84AE849D3993950401B6
:103D90002285C181DD3318401C4B93E747001CCBC3
:103DA000B2402244924441018280011106CE22CCCD
:103DB00026CA2A84AE8432C63D3914403707F0FF44
:103DC0007D17DC462285F98FDCC61D39B24563F7C5
:103DD000950022855D3BA6852285453318401C4B06
:103DE00093E747001CCBF2406244D24405618280D5
:103DF000011106CE22CC26CA2A84AE8432C6E53E04
:103E000014403707F0FF7D17DC462285F98FDCC6AA
:103E1000C53EB24563F795002285853BA685228580
:103E2000A93B18401C4B93E727001CCBF24062448F
:103E3000D24405618280011106CE22CC26CA2A8492
:103E4000AE8432C64D3E1840B706100022855C474E
:103E5000D58F5CC77536B24563F79500228535333B
:103E6000A6852285193B18401C4B93E727001CCBE5
:103E7000F2406244D24405618280411106C622C4E8
:103E800026C22A84AE84853E85452285D53B22857F
:103E9000853E1C401307000793950401D8C3228573
:103EA000C181E13918401C4B93E747001CCBB2405D
:103EB0002244924441018280411122C406C62A84D0
:103EC0001D3E22852244B2408145410155BB25B6A5
:103ED000411106C622C426C22A84AE8415361C406F
:103EE000494793950401D8C32285C181793118408F
:103EF0001C4793E727011CC718401C4B93E747005A
:103F00001CCBB2402244924441018280011106CE72
:103F100022CC26CA2A84AE8432C6F13C144037072C
:103F2000F0FF7D17DC462285F98FDCC6D13C1C40B2
:103F3000B2457D47D8C363F795002285B931A68580
:103F40002285253918401C4793E7B7011CC78347D2
:103F5000A40091C718401C4793E747001CC71840AE
:103F60001C4B93E747001CCBF2406244D2440561EE
:103F70008280011106CE22CC26CA2A84AE8432C6A3
:103F80009D3C14403707F0FF7D17DC462285F98FF2
:103F9000DCC6BD341C40B2457D47D8C363F79500ED
:103FA0002285E536A6852285C93E18401C4793E741
:103FB000B7011CC78347A40091C718401C4793E76B
:103FC00047001CC718401C4B93E727001CCBF2404E
:103FD0006244D24405618280011106CE22CC26CAF9
:103FE0002A84AE8432C6013C1840B70610002285F0
:103FF0005C47D58F5CC729341C40B2457D47D8C388
:1040000063F7950022855136A6852285BD36184076
:104010001C4793E7B7011CC78347A40091C718400A
:104020001C4793E747001CC718401C4B93E7270029
:104030001CCBF2406244D24405618280411106C625
:1040400022C426C22A84AE847D32854522850D395C
:1040500022857D321C401307000793950401D8C3C5
:10406000C1812285193E22857932184022851C475C
:1040700093E707061CC7693218401C4B93E74700BB
:104080001CCBB2402244924441018280411106C6B9
:1040900022C42A848D3222858145DD3618401C4792
:1040A00093F7F7F91CC7B2402244410182804111C5
:1040B00022C406C62A84813218401C47919B1CC723
:1040C0008347A40089C718401C47ED9B1CC7B2401A
:1040D00022444101828018411C43918BF5DF9147B6
:1040E0005CC382801C418CC7828018411C4793E7C7
:1040F00007041CC7828018411C4793E707021CC7AE
:10410000828018411C4793E707011CC78280184131
:104110001C4793E787001CC7828018411C4793E720
:1041200047001CC7828018411C4793E727001CC723
:10413000828018411C4793E717001CC78280B7167E
:10414000000203A7868EB72708009386868E630E2B
:10415000F702138607406302C704938707C06315FD
:10416000F702B7070500938707409C5393F7072092
:1041700081CF1C431047F18F898B89C79C524166C0
:10418000B2979CD2FD575CC38280B7070500938726
:1041900007409C5393F70740E1BFB707050093879B
:1041A00007409C53056613060680F18FD1B70111B5
:1041B00026CAB714000222CC4EC61384848E8549C9
:1041C0004AC806CE2A8908C023020400231304002B
:1041D0002324040023160400230C040023283401A4
:1041E000232A0400EFE0DFDDB7470F0093870724A1
:1041F0003377F50248D021CB232E3401A3020400EB
:104200001385848E21361C4023AE07002320040230
:10421000B72708006304F90A138707406305E90A12
:10422000938707C013050020630CF908EFE0CFE97E
:104230006244F2404249B2491385848ED244C1653A
:10424000FD15056171B1B357F5024147638FE7046E
:10425000376703011307F763636EA7001147638E87
:10426000E70221476380E70409476384E702854743
:104270005CCC69B713070004638CE70213070008DE
:10428000638BE70213070002E393E7FE5CCC9547DC
:1042900039A05CCCA3023401A5B75CCC8947A3024A
:1042A000F400B9BF5CCC8D47DDBF5CCC9147C5BF86
:1042B0005CCC9947EDB75CCC9D47D5B71305004062
:1042C000EFE04FE4A5B7056513050580D5BF4111A3
:1042D000B717000206C69387878E9443C84F98533A
:1042E000D04EB7460F00938606243305D502329789
:1042F000D0538146B335E5023305E502EF60302542
:10430000B240410182804111B717000206C693876F
:10431000878ED04F1305803E94433305C5029853D2
:10432000D44ED05336978146B335E5023305E502C6
:10433000EF60F021B24041018280411122C426C2C7
:1043400006C62A846937AA845937B3079540E3ED36
:1043500087FEB2402244924441018280411122C42E
:1043600026C206C62A844537AA84713FB307954002
:10437000E3ED87FEB2402244924441018280011164
:1043800022CC06CE1841B717050002C402C6938797
:1043900007802A846316F700B70705001147D8CBBA
:1043A0001840B7370800938707806314F702B707F0
:1043B000050013070004D8CF58409547631BF7004A
:1043C000C1473EC08A858947374508003EC2EFD0C5
:1043D0000FB91840B7370800938707C06317F70273
:1043E000B707050013070008D8CF58409547631E4C
:1043F000F700C147374508003EC08A858947130545
:1044000005403EC202C4EFD08FB5F2406244056160
:104410008280011122CC06CE1C4502C002C402C615
:1044200009472A846380E7066366F700B1EB854796
:104430003EC021A00D476389E7041840B737080044
:10444000938707806319F70089478A8537450800F5
:104450003EC2EFD0CFB01840B7370800938707C0EF
:10446000631CF7003745080089478A851305054016
:104470003EC202C4EFD0AFAEF2406244056182801A
:104480003AC065BF91476DB7A1475DB71C414CC9A4
:10449000984B81E5799B98CB828013671700E5BF25
:1044A0001C410CC9CCC382801C410CC58CC78280C6
:1044B0001441B73708004CC1138707800D46638845
:1044C000E600938707C001466393F6001946B707D5
:1044D00005009C5B1D473317C7001347F7FF7D8F0F
:1044E000DC46FD15CD9BDCC6914663E5B602B7C63A
:1044F00000809386861F8A05B695944182868546FC
:10450000B396C600558FB706050098DA184193E7B1
:1045100047005CC782808946B396C600558FB706B0
:10452000050098DA184193E7C700E5B7184193E70B
:104530008700C5B71C4D1841CD8F1CCD5C4BDD8D60
:104540004CCB82801C4D93C5F5FFED8F1CCD1C41DB
:10455000D84BF98DCCCB828018414CC55C47F19B80
:10456000DD8D4CC78280411122C406C61841B717A1
:104570000500938707802A84630DF700B73708008A
:10458000938607806307D700938707C00545631CA0
:10459000F7022285ED3318481C402285D8C3184401
:1045A0001C4098C78345C400453F4C4022850937CD
:1045B0001C401307F03F228598CF4C48C13D22850F
:1045C00081458D3F0145B2402244410182801C411A
:1045D0008CCF82801841B717050093870780630C42
:1045E000F700584185472300F5021C43014593E736
:1045F00007081CC38280054582801841B717050053
:1046000093870780630BF70058412300050201459B
:104610001C4393F7F7F71CC382800545828018413D
:10462000B717050093870780630CF70058414CC506
:10463000A2051C43014593F7F7EFDD8D0CC3828083
:10464000054582801841B717050093870780630CE2
:10465000F70058410CC996051C43014593F7F7F93B
:10466000DD8D0CC38280054582801841B717050097
:1046700093870780630BF70058414CC992051C4390
:104680000145BD9BDD8D0CC38280054582801841AC
:10469000B7170500938707806307F7005C410CCDCF
:1046A0000145CCC38280054582801841B7170500BB
:1046B000938707806306F7005C4101458CC78280C1
:1046C000054582801841B717050093870780630767
:1046D000F7005C41014523A40700828005458280E4
:1046E0001841B717050093870780630AF700584100
:1046F0004CCD01451C43F99BDD8D0CC382800545E3
:1047000082801841B7170500938707806304F70478
:10471000411106C622C42A84ED391C4418404C4479
:10472000A1079207BA975CC02285D53D0C48228527
:10473000113F4C482285153F0C4C2285893F22852C
:1047400051378345C4012285613FB240224401456F
:1047500041018280054582801841B7170500938783
:104760000780630DF702411106C622C42A84713501
:1047700081452285DD3D2285B13781452285D935A8
:1047800081452285B13F81452285113722858145AA
:104790007935B2402244014541018280054582803D
:1047A000184185475CC91C4B93E717001CCB8280DE
:1047B0001841232A05001C4BF99B1CCB8280411118
:1047C000854522C406C62A84B53322852244B240D8
:1047D0004101F9B74111854522C406C62A849D339B
:1047E00022852244B2404101E1B71841B7170500C4
:1047F00093870780630AF702411126C206C622C4C6
:1048000094490D47AE848547639AE60085452A841E
:1048100015332685C133228561378147B240224452
:1048200092443E854101828085473E8582804111C8
:1048300026C2AE84854506C622C42A842133268535
:104840006D3B22852244B2409244410195B7184104
:10485000B717050093870780630CF702411122C444
:1048600006C626C2984985472E84631DF7008C45ED
:10487000AA84B395B7009A0575392285A13B268590
:1048800005378147B240224492443E8541018280EF
:1048900085473E858280411106C622C426C29C45BA
:1048A0002E8493050004B395F500AA84613922850E
:1048B000A9332244B240268592444101D5BD184116
:1048C000B717050093870780630DF702411122C4D3
:1048D00006C626C2944909472E848547639DE60093
:1048E0008C45AA84B395B7008A05A9312285DD31AC
:1048F00026857D358147B240224492443E85410160
:10490000828085473E858280411106C622C426C228
:104910009C452E849145B395F500AA8425312285C6
:10492000E9392244B24026859244410151B54111F2
:1049300022C406C62A84FD3E22852244B24041019B
:1049400085B5411122C406C62A84ED3E2285224443
:10495000B2404101B1BD411126C2B714000222C4C8
:104960004AC09387049106C67D5798CB88C323A27B
:1049700007002A89EFE0CFE4B71705009387078087
:1049800013840491370705006319F9041C43584345
:1049900005078507B387E70237470F00130707248A
:1049A0005CCCB387E7023377F5021DCB85471CD07B
:1049B0001C501385049123260400FD171CC4653682
:1049C0001840138504911C4B93E727001CCB22440D
:1049D000B240924402494101E1B31C4318474DBF24
:1049E000B357F5020547E364F7FCC9B7411106C6A2
:1049F000EFE00FDD37170002130707911C432A86EB
:104A0000085303A807005C4F37470F00130707241C
:104A1000B387A7028146B387E702B3B5070333859F
:104A20000703EF60C032B24041018280411106C6E7
:104A3000EFE00FD937170002130707911C432A86AE
:104A4000085303A807005C4F8146B387A7021305EC
:104A5000803E3385A702B335050333050503EF60B8
:104A6000002FB24041018280411122C426C206C6F5
:104A70002A84AD3FAA849D3FB3079540E3ED87FEAE
:104A8000B2402244924441018280411122C426C294
:104A900006C62A84613FAA84513FB3079540E3EDDF
:104AA00087FEB2402244924441018280011122CC0F
:104AB00006CE26CA1841B717080002C002C402C6B3
:104AC000938707402A846318F70AB7070500094748
:104AD000D8CF5C4181C7930700043EC01C4489C7FE
:104AE000824793E707023EC03C5C89C7824793E751
:104AF00007103EC07C5C89C7824793E707083EC029
:104B000085448A853745080026C2EFC05FC55C58DA
:104B100002C063959700930700023EC08327C40834
:104B200089C7824793E707043EC08327840889C763
:104B300082470567D98F3EC08327040989C782470A
:104B40000967D98F3EC08327440889C78247116708
:104B5000D98F3EC08327040889C782472167D98F30
:104B60003EC03745080089478A85130505403EC287
:104B700002C4EFC0DFBE1840B72708009387078044
:104B8000631EF70AB70705001147D8CF5C4089C7F5
:104B9000824793E707203EC01C4489C7824793E7BA
:104BA00007103EC03C5C99C7824705671307078022
:104BB000D98F3EC07C5C89C7824793E707403EC0DF
:104BC0003745080085448A851305054026C202C47E
:104BD000EFC0FFB85C5802C06395970093070004CC
:104BE0003EC08327C40889C7824793E707083EC0B1
:104BF0008327840889C7824793E717003EC083272D
:104C0000040989C7824793E727003EC083274408E9
:104C100089C7824793E747003EC08327040889C7B6
:104C2000824793E787003EC03755080089478A8549
:104C3000130505803EC202C4EFC07FB2F240624459
:104C4000D244056182801C41C84F59810589828008
:104C50001C41C84F558105898280411122C406C676
:104C600018412A841C43F99B1CC389355844937707
:104C7000170091C38567098B01C737070010D98FCB
:104C8000184819C393E70740584819C393E707200A
:104C9000384C19C393E70710784C19C393E70708FA
:104CA000385019C393E70704785019C393E70702F4
:104CB000385419C393E7070118401CC31C4C99C30F
:104CC000B7070800584C01C737070400D98F1850A0
:104CD00001C737070200D98F585019C34167D98FD0
:104CE000185419C32167D98F585419C31167D98F24
:104CF000185819C30967D98F585809C7056713078A
:104D00000780D98F185C9376270099C293E70740F4
:104D1000058B19C393E70720585C19C393E7071065
:104D2000785419C393E7070418405CC33C4091C30F
:104D30008567785C19C393E70720784019C393E728
:104D40000710384419C393E70708784419C393E759
:104D50000704384819C393E78700784819C393E7D5
:104D60004700385819C393E70740785819C393E7A9
:104D7000170018401CC78327840891C718405C5748
:104D800093E707105CD7EFE0AFA3B70705009843A0
:104D90009C47144005073355E50285073D473355C9
:104DA000F502832744093355F502C8C61C40054562
:104DB000D4476379D702584009C7984313678700DF
:104DC00098C31C4491C718401C4393E747001CC379
:104DD00018401C4393E717001CC35C4081EB1C4444
:104DE00091EB0145B24022444101828022858D35FC
:104DF00075DDF5B72285813D75DDE5B71C41C84FEE
:104E00002981058982801C41C84F258105898280BE
:104E10001C41C84F2181058982801C41C84F1981DE
:104E200005898280011122CC26CA06CE4AC84EC608
:104E3000AA8432841DEA0326450937440F005C45E5
:104E4000130404243354C40209466369F600370787
:104E5000000213078705BA9703C607009C588DCF39
:104E60000547638DE702330486029C408CD7EFB080
:104E70007FEEAA89268555372A8919E5EFB09FED7F
:104E800033053541E378A4FEF2406244D244B2498E
:104E90004A854249056182800506F1B70906E1B7F6
:104EA000011122CC26CA4AC84EC652C406CEAA89CF
:104EB000368A2E843389C5008544631B2401F24061
:104EC00062444249B249224A2685D2440561828021
:104ED0008345040052864E85B137E98C0504F1BF45
:104EE000011122CC26CA4AC84EC606CE2A89B289EA
:104EF0002E84854483450400050489E9F240624418
:104F00004249B2492685D244056182804E864A854F
:104F1000113FE98CC5B71C41C84F1D8105898280AE
:104F20001C41C84F158105898280011122CC26CAF7
:104F30004EC606CE4AC852C4AA84AE8932841DEA3F
:104F40000326450937440F005C45130404243354F9
:104F5000C40209466369F600370700021307870594
:104F6000BA9703C607009C5895C305476382E702BA
:104F700033048602EFB01FDE2A8A268555372A8938
:104F800011C99C40DC532380F90019A80506CDB750
:104F90000906F9BFEFB01FDC33054541E37FA4FCF0
:104FA000F2406244D244B249224A4A8542490561EC
:104FB0008280011122CC26CA4AC84EC652C406CEEF
:104FC000AA89368A2E843389C5008544631B24014F
:104FD000F24062444249B249224A2685D2440561E0
:104FE0008280A28552864E858937E98C0504F9BFF7
:104FF0001C41C84F1181058982801C41C84F0D8119
:10500000058982801C41C84F0981058982801C4125
:10501000C84F0581058982801C41C84F058982805F
:105020004111B717080022C426C206C6938707405D
:1050300088D7EFB03FD22A84B71408009387044082
:10504000DC4F93F7070489E7EFB0DFD0E30885FE74
:10505000B24022449244410182801C41D85789C504
:1050600013670710D8D782801377F7EFE5BF1C418D
:10507000C8571D81058982801C41C8570D8105894B
:1050800082801C41C8571981058982801C41C857FC
:105090000981058982801C41C85715810589828054
:1050A0001C41C8570581058982804111614522C490
:1050B00006C6EF30C0092A8409C523200500110562
:1050C000E524B2402285224441018280011126CA92
:1050D0004AC84EC652C456C206CE22CC2A89AE84D5
:1050E000328AB68ABA8919E1EFB08FAFB70700FFED
:1050F000E58FA9C7EFB0CFAEEF10902C09E5638420
:105100000900EFB0EFADEF10E06803240900B3F73A
:10511000840063970A029DE7638E0902B33540015C
:10512000E20563850A00B7070004DD8D4E86C58D54
:1051300013054900EF10F00B014429A8D5FC5DBF11
:10514000E39CF4FC814963070A0093C7F4FFE18FF5
:105150002320F900EF20A03D6389090219E17300C3
:105160000000EF20A061B7070002E98F2A8481EFD9
:10517000EF10D04C03240900B3F7840063910A02B6
:105180008DE3EF10D04D22042180F240228562444D
:10519000D2444249B249224A924A05618280E3924E
:1051A000F4FEE3000AFE93C4F4FFE18C232099008F
:1051B000C9BF011122CC26CA06CEAA842E8419E1C9
:1051C000EFB00FA2B70700FFE18F99C3EFB04FA177
:1051D000EF10D04688401344F4FF698C80C02AC683
:1051E000EF10F047F24062443245D24405618280BC
:1051F00008418280797122D426D206D64AD04ECE7A
:1052000052CC56CA5AC85EC62A84AE8419E1EFB0A1
:105210002F9DB70700FFE58F99C3EFB06F9CEF108C
:1052200060570C40084837090001CD8C04C0930931
:10523000C4008144130AF9FFB70A0004370B0002C7
:105240000C406314350393C4F4FFED8C04C0EF20CD
:10525000002E0840B250225492540259F249624A38
:10526000D24A424BB24B456182801C41832B4500A0
:1052700033F7470133F65701B376B70001E689E605
:105280005E857DBFE31ED7FEB3F7270191C3D98C9E
:10529000B3E56501EF107007E5B70111B70700FF2F
:1052A00026CA4AC84EC652C406CE22CCF18F2A89DD
:1052B0002E8AB284B689D9C7EFB08F92EF10501002
:1052C00009E563840900EFB0AF91EF10A04C03240F
:1052D0000900D2854A85393F33644401B37794008D
:1052E000639497060327090093C7F4FF8149F98F58
:1052F0002320F900EF20A023638D090219E1730038
:105300000000EF20A047B7070002E98F2A8485E359
:10531000EF10D03203240900B3F78400639797009D
:1053200093C4F4FFE18C23209900EF105033220442
:105330002180F24022856244D2444249B249224A45
:105340000561828025FE8DBF638C0900B7050005CD
:105350004E86C58D13054900EF10A069014459BF61
:105360000324090041BF411122C42A8426C206C673
:105370009304C400EF1000425C4091EB2285EF20C3
:1053800030642244B240924441016F20401A1C48CC
:1053900063949700EFB0CF840848B7050002EF1080
:1053A000C076D9BF81BD31B5930785007D575CC1FB
:1053B00018C55CC51CC92320050082802328050070
:1053C00082805C41DCC1984798C54CC38CC788C9B2
:1053D0001C4185071CC182809441FD57130785003D
:1053E000639DF6001C49D843D8C10CC79CC5CCC3EB
:1053F00088C91C4185071CC18280BA875843104365
:10540000E3FDC6FECDB7544118451C4998C654412A
:1054100054C3D8436314A7001845D8C323280500F4
:1054200098437D1798C388438280411122C42A84FF
:1054300006C6EF10B020005CEF107022B2401335AA
:105440001400224441018280411122C426C206C6B2
:105450004AC0B2843041032985032A8405E61C41F1
:10546000814499E70845EF101005AA84232404001D
:105470000509232C2403B240224402492685924484
:105480004101828091EC4841EF6030475C403840F8
:10549000BA9718445CC0E3EDE7FC1C405CC0C9BF90
:1054A0004845EF60904538405C44B306E040998F32
:1054B00018405CC463F5E7001C44B6975CC4894798
:1054C0006397F4008144E30509FA7D1955B78144D7
:1054D00045B7AA87B0432E8501CED8479447329767
:1054E000D8C76364D7009843D8C7CC476F60F040F3
:1054F0008280411122C42A8426C24AC006C6EF1007
:10550000F0138344540413094402E204E184634B1E
:105510009002FD57A302F404EF107014EF10101264
:105520008344440413090401E204E18463489002C3
:10553000FD572302F4042244B2409244024941013F
:105540006F10F0115C50F1D74A85EF10E05219C18D
:10555000EF10A065FD14E204E18455BF1C48E9DBAF
:105560004A85EF10605119C1EF102064FD14E20468
:10557000E1846DBF411122C426C206C62A84AE84CE
:1055800019E1EFA0FFE5EF10700B34405C5C1840B0
:10559000232C0402B387F60258C03306F700958F18
:1055A000BA975CC4FD572302F40410C4A302F404A8
:1055B00095E01C4881CB13050401EF10E04B19C1A5
:1055C00073000000EF10B009B24022449244054538
:1055D0004101828013050401EFF01FDD1305440231
:1055E000EFF09FDCC5B7411126C24AC006C622C4EF
:1055F0002A89AE8419E1EFA0BFDE330599021305B5
:105600008504EF20D0342A8401CDAA8799C093075E
:1056100085041CC0232E240324C085452285993F80
:10562000B2402285224492440249410182804111C4
:1056300022C426C206C62A84AE8419E1EFA05FDA2E
:1056400063749400EFA0DFD9094681452285613F4C
:1056500011C104DDB240224492444101828039717B
:1056600022DC26DA4AD806DE4ED652D456D25AD09A
:1056700032C62A842E89B68419E1EFA07FD663163C
:1056800009003C4099C3EFA0BFD589476398F40057
:10569000585C85476304F700EFA09FD4EF10405299
:1056A00009E5B24799C3EFA0BFD3014A894AFD5922
:1056B000130B0401EF108078185C5C5C6364F700E6
:1056C000639C54032686CA852285BD3B5C5089C7EE
:1056D00013054402EF10403A19C173000000EF10A7
:1056E00000780545F2506254D2544259B259225AB8
:1056F000925A025B21618280B24789E7EF102076DF
:105700000145CDB763150A002808EF10A048EF1037
:105710000075EF102008EF10607283474404E20721
:10572000E187639437012302040483475404E207AA
:10573000E18763943701A3020404EF1040726C0008
:105740002808EF10707C15EDEF10406F185C5C5C62
:10575000631FF700EF10A070B2455A85EF10A02626
:105760002285413BEF10B05C11C9054AA1B7EF108B
:10577000006F2285BD3BEF10905BC5BF730000003A
:10578000EDB72285BD33EF10905A9DBF41112A8697
:105790008145054522C406C6B9352A8419C9232482
:1057A000050023200500232605008146014681458A
:1057B0007D35B2402285224441018280411122C4BC
:1057C00006C626C24AC02A8419E1EFA07FC1032978
:1057D0008400EF10403E8144631CA9005C44854472
:1057E000FD175CC491E78146014681452285853DD0
:1057F000B24022440249268592444101828001112F
:1058000022CC4AC84EC652C406CE26CA56C22A84E4
:105810002E8AB289368919E1EFA09FBC63160A006F
:105820003C4099C3EFA0DFBB89476318F900585C7F
:1058300085476304F700EFA0BFBA185C5C5C636641
:10584000F700894701456312F902834454044A86EC
:10585000D2852285939A8401C53E93DA8A41FD5709
:105860006399FA025C5099EB0545F2406244D244D8
:105870004249B249224A924A056182801305440294
:10588000EF10801F75D1E38109FE854723A0F90041
:10589000E1BF8504E204E184A3029404F1B741115D
:1058A00022C426C206C62A84AE8419E1EFA05FB3E3
:1058B0003C4099C3EFA0DFB21C4089E71C4499C368
:1058C000EFA01FB2185C5C5C0145637FF700834763
:1058D0005404050718DC93968701E1867D5763938E
:1058E000E6025C5099E70545B240224492444101EA
:1058F000828013054402EF10201875D5EDD485473A
:105900009CC0D5B78507E207E187A302F404E1BF95
:10591000397122DC26DA06DE4AD84ED652D456D267
:1059200032C62A84AE8419E1EFA09FAB89E43C40E3
:1059300099C3EFA0FFAAEF10A02809E5B24799C3C9
:10594000EFA01FAA014AFD59930A4402EF10004F2D
:1059500003298403630D0902A68522857D19953EDE
:10596000232C24031C4881CB13050401EF10C01025
:1059700019C173000000EF10804E0545F2506254CB
:10598000D2544259B259225A925A21618280B24766
:1059900089E7EF10C04C0145D5B763150A00280808
:1059A000EF10401FEF10A04BEF00D05EEF1000494A
:1059B00083474404E207E187639437012302040428
:1059C00083475404E207E18763943701A302040488
:1059D000EF10E0486C002808EF10105315E5228501
:1059E000A93411CDB2455685EF00F07D22851136E0
:1059F000EF10F03319E173000000054A81BF2285E2
:105A0000CD3CEF10D032D5BF2285E534EF103032D7
:105A10002285213C7DD141B7397122DC06DE26DAB0
:105A20004AD84ED652D42EC62A8419E1EFA05F9BE5
:105A30003C4099C3EFA0DF9AEF10801809E5B24708
:105A400099C3EFA0FF99814481497D59130A44020B
:105A5000EF10C03E1C5C8DCFFD171CDC1C4081E7A5
:105A6000EF10905308C41C4881CB13050401EF10BC
:105A7000A00019C173000000EF10603E8544F25091
:105A800062544259B259225A2685D25421618280E9
:105A9000B24781EB99C0EFA0BF94EF10403C814426
:105AA000F9BF639509002808EF10C00EEF10203BE6
:105AB000EF00504EEF10803883474404E207E1873F
:105AC000639427012302040483475404E207E18717
:105AD00063942701A3020404EF1060386C002808C7
