:0200000480007A
:10000000FD62938202400100FD12E39E02FE374131
:10001000000213010100B701000293810100B7053E
:100020000080938505203706008013060620B7065A
:1000300000029386060039A083A2050023A0560083
:1000400091059106E3EAC5FEB7050080938505207A
:100050003706008013060620B706000293860600C6
:1000600039A083A2050023A0560091059106E3EA7A
:10007000C5FEB7050002938505003706000213068A
:10008000060021A023A005009105E3EDC5FEB70001
:100090000080E780C00AB7000080E780C00AB70090
:1000A0000080E780601B73005010F5BF8280000065
:1000B0000000000000000000000000000000000040
:1000C0006F004000197106C20AC40EC612C816CAD3
:1000D0001ACC1ECE22D026D22AD42ED632D836DA48
:1000E0003ADC3EDEC2C0C6C2CAC4CEC6D2C8D6CA78
:1000F000DACCDECEE2D0E6D2EAD4EED6F2D8F6DA28
:10010000FADCFEDE970000009380E00482909240CB
:100110002241B2414242D2426243F24302549254DB
:100120002255B2554256D2566257F2570648964863
:100130002649B649464AD64A664BF64B065C965C5B
:10014000265DB65D465ED65E665FF65F096173004A
:10015000203001A0B70705001167D8CF8280B757BC
:10016000080093870780984B41111347070898CBE5
:10017000B7470F0002C69387F723324763D4E700DF
:1001800041018280324705073AC6C5BFB75708000C
:100190001387078083A7078093F7070481CF1C4B41
:1001A00093E707081CCB375708008327078093F78E
:1001B0000704E5FF8280411106C6B70705001167F5
:1001C000D8CFB7170500938707C0984FD176FD1693
:1001D000758F98CF984FF576FD16758F98CFB757D6
:1001E0000800938707801307000898C713070004C7
:1001F000D8C7B537613FF5BF000000000000000020
:040000058000000077
:00000001FF
