:0200000480007A
:100000003741000213010100B70100029381010092
:10001000B7450080938505FD37460080130606002E
:10002000B70600029386060039A083A2050023A02C
:10003000560091059106E3EAC5FEB70500029385D7
:100040000503370600021306060421A023A00500BD
:100050009105E3EDC5FEB7000080E7804007B700DB
:100060000080E7804007B7300080E78040027300DF
:100070005010F5BF8280000000000000000000006A
:100080000000000000000000000000000000000070
:100090000000000000000000000000000000000060
:1000A0000000000000000000000000000000000050
:1000B0000000000000000000000000000000000040
:1000C0006F004000197106C20AC40EC612C816CAD3
:1000D0001ACC1ECE22D026D22AD42ED632D836DA48
:1000E0003ADC3EDEC2C0C6C2CAC4CEC6D2C8D6CA78
:1000F000DACCDECEE2D0E6D2EAD4EED6F2D8F6DA28
:10010000FADCFEDE970000009380E00482909240CB
:100110002241B2414242D2426243F24302549254DB
:100120002255B2554256D2566257F2570648964863
:100130002649B649464AD64A664BF64B065C965C5B
:10014000265DB65D465ED65E665FF65F096173004A
:10015000203001A01308060093080500138705004E
:100160006390060E63FEC512B7070100636EF61EAC
:10017000B7070001930680016374F600930600013F
:100180003353D60097470000938707D0B3876700A3
:1001900083C7070013030002B387D700B306F340F9
:1001A000630CF3003397D500B357F5003318D6002E
:1001B00033E7E700B318D500135608013355C702DB
:1001C0009316080193D6060193D708013377C70227
:1001D000B385A60213170701B3E7E70063FCB70076
:1001E000B307F8001307F5FF63E4070163E0B740C6
:1001F00013050700B387B74033D7C70293980801A8
:1002000093D80801B3F7C702B386E60293970701B4
:10021000B3E8F80063FED800B30818019307F7FFAE
:1002200063E608011307E7FF63E4D80013870700BC
:10023000131505013365E500930500006780000094
:1002400063F8D500930500001305000067800000E7
:10025000B707010063E8F61E370700019307800126
:1002600063F4E6009307000133D8F6001747000057
:10027000130787C1330707010347070093080002EC
:100280003307F7003388E8406396E81E63E4B6322C
:100290003335C50013351500930500006780000055
:1002A000630C060CB7070100637CF62E13370610AB
:1002B0001337170013173700B356E60097470000AF
:1002C000938787BCB387D70083C7070093060002D4
:1002D000B387E700B38EF6406394F60CB387C5404E
:1002E00093560601131606011356060193051000D6
:1002F00033D5D70213D70801B3F7D7023303C502AA
:1003000093970701B367F70063FC6700B307F80032
:100310001307F5FF63E4070163E4672C1305070087
:10032000B387674033D7D7029398080193D8080161
:10033000B3F7D7023306C70293970701B3E8F80073
:1003400063FEC800B30818019307F7FF63E60801CE
:100350001307E7FF63E4C8001387070013150501BF
:100360003365E500678000009336061093B61600EB
:10037000939636006FF0DFE0930600009747000089
:10038000938787B0B387D70083C7070013070000A0
:1003900093060002B387E700B38EF640E380F6F4DD
:1003A0003318D60133D3F50093560801335ED302D8
:1003B00013160801B395D50113560601B357F5007E
:1003C000B3E7B70013D70701B318D5013373D302CE
:1003D000B305C6031313030133676700637EB700D9
:1003E0003307E8001305FEFF6364071F6372B71E3F
:1003F000130EEEFF330707013307B7403355D7021B
:100400009397070193D707013377D7023303A602E7
:1004100013170701B3E7E70063FE6700B307F800AF
:100420001307F5FF63EE071963FC67181305E5FF73
:10043000B387070193150E01B3876740B3E5A500A5
:100440006FF01FEB93B7061093B717009397370021
:1004500033D8F60017470000130707A33307070137
:1004600003470700930800023307F7003388E8408A
:10047000E38EE8E0335EE600B3960601336EDE00FD
:10048000B3D8E500935E0E01B3D7D80313130E0162
:10049000B3950501135303013357E5003367B700E4
:1004A0009356070133160601B3F8D803B305F302D8
:1004B00093980801B3E6160163FEB600B306DE00AA
:1004C0009388F7FF63EAC61163F8B6109387E7FFD6
:1004D000B386C601B386B640B3D5D603131707015A
:1004E00013570701B3F6D603B308B3029396060178
:1004F0003367D700637E17013307EE009386F5FF5D
:100500006364C70D6372170D9385E5FF3307C70159
:1005100093970701B70E0100B3E7B7009386FEFF7C
:10052000B3F5D70013D30701B376D60013560601EF
:10053000338ED50233071741B306D30293580E0109
:10054000B385C502B385D500B385B8003303C302B4
:1005500063F4D5003303D30193D60501B386660057
:10056000636AD7026308D70013850700930500006C
:1005700067800000B70601009386F6FF33F7D500C9
:1005800013170701337EDE00331505013307C7015A
:10059000E37CE5FC1385F7FF93050000678000000E
:1005A000B7070001637AF6049356060113070001AA
:1005B0006FF0DFD093050000130510006780000086
:1005C000130507006FF01FE7938506006FF05FF4D7
:1005D000130E05006FF05FE2938708006FF09FEF46
:1005E0001305E5FFB38707016FF09FD31305E5FF00
:1005F000B38707016FF01FC0935686011307800170
:100600006FF0DFCB13080600930805009387050001
:10061000138705006398060C63FAC512B70701003B
:10062000636CF61CB7070001930680016374F60043
:10063000930600013353D600974700009387C78481
:10064000B387670083C7070013030002B387D7008F
:10065000B306F340630CF3003397D500B357F500AE
:100660003318D60033E7E700B318D50093550801D7
:100670003356B702131308011353030193D708012C
:100680003377B7023306660213170701B3E7E700B3
:1006900063F8C700B307F80063E4070163E2C73CEF
:1006A000B387C74033D7B702139508011355050127
:1006B000B3F7B70233076702939707013365F50075
:1006C000637AE5003305A800636605016374E500FD
:1006D000330505013305E5403355D500930500008A
:1006E0006780000063F4D5006780000037070100D1
:1006F00063E6E61C370700011308800163F4E60097
:100700001308000133D30601173700001307C7771A
:10071000330767000347070013030002330707018D
:100720003308E3406314E31C63E4B600636AC50066
:10073000B308C540B386D540B3371501B387F6403B
:10074000138508009385070067800000630E060A82
:10075000B70701006374F62E13370610133717001E
:1007600013173700B356E600973700009387C77119
:10077000B387D70083C7070013030002B387E700DE
:10078000B306F3406316F30A3387C54013530601DB
:100790001316060113560601B355670293D70801D5
:1007A00033776702B385C50213170701B3E7E70084
:1007B00063FAB700B307F80063E6070163F4B70014
:1007C000B3870701B387B74033D76702939808010F
:1007D00093D80801B3F767023307C70213950701DF
:1007E00033E5A800E360E5EE3305E5403355D50079
:1007F00093050000678000009336061093B616003C
:10080000939636006FF01FE39306000097370000C1
:1008100093878767B387D70083C707001307000054
:1008200013030002B387E700B306F340E30EF3F4CB
:100830003318D60033DEF50013530801B35E6E02A1
:1008400013160801B395D5003357F500135606016A
:100850003367B70093570701B318D500337E6E0294
:10086000B385CE02131E0E01B3E7C70163FAB700CA
:10087000B307F80063E6070163F4B700B387070125
:10088000B387B740B3D567021317070113570701A2
:10089000B3F76702B385C502939707013367F70083
:1008A000637AB7003307E800636607016374B70033
:1008B000330707013307B7406FF01FEE13B8061078
:1008C000133818001318380033D306011737000007
:1008D0001307875B33076700034707001303000212
:1008E000330707013308E340E300E3E4B39606016E
:1008F000B358E600B3E8D80033DEE50013DF0801A3
:10090000B357EE03939E080193DE0E01B356E50044
:1009100033130501B3950501B3E5B60093D6050180
:1009200033160601337EEE033385FE02131E0E01DD
:10093000B3E6C60163FEA600B386D800138EF7FFA8
:1009400063EC161163FAA6109387E7FFB3861601CE
:10095000B386A64033D5E6039395050193D50501EB
:10096000B3F6E603B38EAE0293960601B3E5D50067
:1009700063FED501B385B8009306F5FF63EA150D54
:1009800063F8D50D1305E5FFB385150193960701AF
:10099000B7020100B3E6A6001385F2FF33FEA600FE
:1009A000935F060193D606013375A600330FAE029E
:1009B000B385D5413385A60293570F01330EFE034D
:1009C000330EAE00B387C701B386F60363F4A70006
:1009D000B3865600B70E0100938EFEFF33F5D701A4
:1009E00013DE070113150501337FDF01B307DE00B6
:1009F0003305E50163E8F5026384F5023305A3409E
:100A00003333A300B385F540B38565403397E500E4
:100A1000335505013365A700B3D505016780000094
:100A2000E37EA3FC3306C5403335C500B30815018A
:100A3000B3871741130506006FF05FFCB70700018D
:100A40006374F60293560601130700016FF0DFD1BD
:100A5000138506006FF09FF393070E006FF05FEFB2
:100A6000B38707016FF0DFC3935686011307800138
:100A70006FF09FCFB7071000130101FE938EF7FFB1
:100A800033F8BE00B3F7DE0013D34601232821015B
:100A900013D9450193973700232C81001318380090
:100AA00013D4F5011357D5019358D6011379F97F63
:100AB0001373F37F232E1100232A91002326310183
:100AC00093D6F601B3E8F8003367070193153500B4
:100AD000131F3600B30769406304D41E6352F01637
:100AE000630603289306F07F6306D94293068003CA
:100AF0001306100063CEF602B7068000B3E8D800F4
:100B00009306F00163CEF65293060002B386F640D8
:100B10003396D8003355FF00B316DF003366A600C6
:100B2000B336D000B3D8F8003366D6003307174188
:100B30003386C540B3B5C50093040600B309B7407A
:100B40009397890063DA0732B70780009387F7FF2E
:100B5000B3F9F9006388092C13850900EF204037A9
:100B6000930785FF930600023387F64033D7E400EE
:100B7000B399F90033673701B394F40063C8274B86
:100B8000B387274193871700B386F6403396D40086
:100B9000B3D9F4003336C00033663601B316D7003C
:100BA000B3E4C600B359F7001309000093F77400CB
:100BB0006380070293F7F40013074000638AE7009D
:100BC0009387440033B69700B389C9009384070024
:100BD0009397890063DA076E930719001307F07F74
:100BE000130E04006386E72A370780FF1307F7FF19
:100BF00033F7E90093F7F77F1318D70113D63400C2
:100C0000131797003368C8001357C7008320C1012A
:100C10000324810193974701B3E7E7001317FE010F
:100C2000B3E7E70083244101032901018329C100BF
:100C30001305080093850700130101026780000077
:100C4000638C0714B30723416312093C3365B70073
:100C50006304054C1385F7FF630205601308F07FFA
:100C600063860757930780031306100063CCA7021F
:100C7000930705001306F001634CF65613050002B6
:100C80003305F5403316A70033D8F5003395A5009A
:100C9000336606013335A0003357F7003366A600EC
:100CA000B388E8403306CF403337CF0093040600C3
:100CB000B389E84013090300138406006FF05FE86E
:100CC0006350F01E63100314B3E6E801638C06263C
:100CD0009386F7FF638006481306F07F638CC72274
:100CE000930780039309100063CCD7029387060013
:100CF0009306F00163C0F64A93060002B386F640FD
:100D0000B399D8003356FF00B316DF00B3E9C9002A
:100D1000B336D000B3D8F800B3E9D90033071701D0
:100D2000B385B900B3B9350193840500B389E900EF
:100D30009397890063D20714130919009307F07F72
:100D4000630CF936B70780FF9387F7FF13F614009B
:100D5000B3F7F90013D714003367C7001396F701F0
:100D6000B364E60093D917006FF05FE4B3E6E801DF
:100D7000638A061C9386F7FF638006401306F07FA4
:100D8000638AC7189307800313061000E3C2D7DAFB
:100D9000938706006FF0DFD6130819001378E87FF9
:100DA000631C08223363B70033E8E8016310093895
:100DB000630E034663060840B389E54133B5350148
:100DC000330617413306A64013158600635E0550AF
:100DD000B305BF403387E840333FBF003307E741E7
:100DE0001316870093840500635E0652B70780FFE1
:100DF0009387F7FF3377F700138E060093071000F1
:100E00006FF09FDF9306F07F6306D910930680038F
:100E100093091000E3C6F6F0B7068000B3E8D800E7
:100E20006FF01FED13850400EF20800A9307850102
:100E30009306F001E3D8F6D2130785FF3397E40059
:100E400063C62723338927419307190063D6F648E1
:100E5000130919FE93060002B3542701638CD700CF
:100E600093060004B387F6403317F7003337E000EA
:100E7000B3E4E4001309000093F77400E39C07D285
:100E80009307090013D63400138709006F00000C84
:100E90009307F07F13070000130800006FF01FD7BF
:100EA000638A070CB30723416302091E9306F07F90
:100EB0006308D332930680039309100063CEF602D1
:100EC000B70680003367D7009306F00163C8F63C8D
:100ED00093060002B386F640B319D70033D6F50067
:100EE000B396D500B3E9C900B336D0003357F70045
:100EF000B3E9D900B388E8003387E901B339370192
:100F000093040700B3891901130903006FF05FE22E
:100F10006310080213163500135636001318D70154
:100F20003368C80013573700336707016306071893
:100F3000130E00009307F07F370708001308000026
:100F40006FF0DFCC13163500135636001318D70197
:100F50009306F07F3368C80013573700E386D7FC49
:100F60001317C7001357C70093F7F77F130E04003A
:100F70006FF0DFC99306190013F8E67F63180814B1
:100F8000B366B700631C092863820630B3E6E80144
:100F900063880622B387E501B3B5B70033071701AD
:100FA0003307B70013D8370093178700130E0400D8
:100FB00063DE0734B70780FF9387F7FF3377F700C7
:100FC0009317D7011357370033E807013377D70159
:100FD000930710006FF09FC33388E541B3B7050155
:100FE000B3091741B389F940939789009304080026
:100FF00063C6071033683801E31E08B4130E0000FF
:1010000093070000130700006FF05FC01305F07F27
:10101000630EA31A1305800313061000E344F5C8FA
:10102000370680003367C7006FF0DFC4B70980FF61
:101030009389F9FF3309F940B37937016FF01FB78E
:10104000938607FE13060002B3D6D800638AC70052
:1010500013060004B307F640B397F800336FFF00A0
:101060003336E0013366D6006FF09FACB70680FFE1
:101070009386F6FFB307F9403377D7001318D701EB
:1010800033683801135737006FF09FEDB366B70030
:101090006386061E9386F7FF638E060A1305F07FAC
:1010A0006380A7149307800393091000E3C6D7E475
:1010B000938706006FF05FE1130E04009307F07F43
:1010C00013070000130800006FF05FB49307F07F70
:1010D000E384F6FE338FE501B335BF00B307170194
:1010E000B387B7001396F701135F1F00B364E601DF
:1010F00093D91700138906006FF05FAB3306BF402A
:10110000B387E8403337CF0093040600B389E74044
:10111000138406006FF01FA4131636001356360012
:1011200013840600138708006FF05FE2E31203DE0A
:101130006306081C13D73800131636009398D8019D
:1011400033671701135636003367C7001384060050
:101150006FF0DFDD338FE501B3081701B335BF0052
:10116000B389B8009397890093040F0063D4070EE6
:10117000130920006FF01FBD338FE541B3081741FD
:10118000B3B5E50193040F00B389B840130910000B
:101190006FF01F9B938607FE13060002B3D6D8009C
:1011A000638AC70013060004B307F640B397F8003C
:1011B000336FFF00B339E001B3E9D9006FF05FB6D8
:1011C00013163500935936006FF05FEB1316360097
:1011D0001356360013840600138708006FF01FD4DF
:1011E0001316360013563600138708006FF01FD30E
:1011F000138507FE130600023355A700638AC70054
:1012000013060004B307F640B317F700B3E5F50083
:101210003336B0003366A6006FF0DFA8E38206FC29
:1012200033EFE801E3160FD06FF0DFCEE30808DC00
:10123000131836009397D8011358380013D7380085
:101240003368F8003377D701138E06009307000048
:101250006FF0DF9B930710006FF0DFC2B305BF4054
:10126000B388E8403337BF0093840500B389E84072
:1012700013840600130910006FF09F8C13163600BC
:1012800013563600138708006FF05FCC1316360034
:1012900093593600138708006FF05FDE938607FED0
:1012A00013060002B356D700638AC7001306000472
:1012B000B307F640B317F700B3E5F500B339B00054
:1012C000B3E9D9006FF05FC313D634009307090068
:1012D000138709006FF09FC793060002B386F6409C
:1012E000130600006FF05F8B33E8C900E30808D0F5
:1012F00093D93900130706006FF05FD8130E000072
:101300009307F07F370708006FF05F909317D701BE
:101310001357370033E807013377D70193070000ED
:101320006FF0DF8E1318D70193D535003368B800FE
:1013300013573700138406006FF09FC2130101FD9D
:10134000232E310193D945012324810223229102C6
:1013500023202103232C4101232671019394C500EE
:1013600023261102232A510123286101232481010C
:1013700093F9F97F13040500930B06001389060007
:1013800093D4C40013DAF501638C09189307F07F36
:10139000638AF908939434009357D501B3E7970013
:1013A00037078000B3EAE700131B3500938919C0A3
:1013B00093040000130C0000935749011314C90053
:1013C00093F7F77F1354C4001359F9016384070896
:1013D0001307F07F638CE7181314340013D7DB0175
:1013E00033678700938717C0370480003364870012
:1013F00093983B00B389F940130600001307F000EF
:10140000B3462A0163669724173700001307C7A362
:1014100093942400B384E40083A70400B387E70017
:1014200067800700B3EAA400639E0A1C9357490132
:101430001314C90093F7F77F130B00009304800087
:101440009309F07F130C20001354C4001359F901C1
:10145000E39007F8B36874016382081C630A044AC6
:1014600013050400EF10D02693070500930655FFDF
:101470001307D001938887FF3307D7403314140133
:1014800033D7EB0033648700B3981B01B387370170
:101490009389373F130600006FF05FF63307F7407C
:1014A00013068003635AE64E9307000013060000FC
:1014B000130700008320C102032481029397470190
:1014C000B3E7C7009396F601B3E7D7008324410240
:1014D000032901028329C101032A8101832A4101D1
:1014E000032B0101832BC100032C8100130507008E
:1014F0009385070013010103678000009307F07FC5
:1015000013060000130700006FF0DFFA93060000D7
:101510009307F07F37060800130700006FF09FF96C
:10152000B3EAA400638C0A106388044013850400A6
:10153000EF10101A13070500930655FF9307D0010B
:10154000130B87FFB387D740B3946401B357F400FC
:10155000B3EA9700331B64019309D0C0B389E94013
:1015600093040000130C00006FF01FE5B3687401D2
:1015700093891980639C080A93E4240013040000F3
:10158000130620006FF09FE713090A0013840A0076
:1015900093080B00930720006308FC4E930730006C
:1015A000E306FCF69307100093060900E30EFCEE39
:1015B0009387F93F6356F02A13F778006316074ABA
:1015C00013177400635A0700B70700FF9387F7FFEC
:1015D0003374F400938709401307E07FE340F7F288
:1015E00093D838001317D4011316940033671701EA
:1015F0001356C60093F7F77F6FF0DFEB130C06006E
:101600006FF05FF9938A0400130B05009304C00088
:101610009309F07F130C30006FF01FDA93E414008D
:1016200013040000130610006FF05FDD93E4340034
:1016300093880B00130630006FF05FDC130B000083
:101640009304400093090000130C10006FF0DFD6E4
:101650006364542B63808A2A13030B009389F9FF78
:1016600093870A00130B000013178400135507011A
:1016700033D4A70213D688013366E6001318060197
:10168000135808019395880013570301B3F7A70275
:10169000B308880293970701B367F70063FA17014D
:1016A000B307F6001307F4FF63F0C72E1304070017
:1016B000B3871741B3D8A7021317030113570701C4
:1016C000B3F7A702B30F1803939707013367F70027
:1016D000637AF7013307E6009387F8FF637EC72834
:1016E0009388070013140401B70201003364140146
:1016F0001383F2FFB3786400935E040113DE0501E7
:1017000033F36500330F13033307F741B3081E03A8
:1017100093570F01B38F6E02B388F801B387170197
:10172000B38ECE0363F4F701B38E5E00B70F0100F2
:10173000938FFFFF93D80701B3F7F7019397070142
:10174000337FFF01B388D801B387E701636E1717B2
:10175000630A1717B307FB4033071741333BFB00FE
:10176000330767416300E62EB358A70293DE0701F3
:101770003377A702330F18031317070133E7EE007F
:10178000637EE7013307E600938EF8FF636AC72E96
:101790006378E72F9388E8FF3307C7003307E741F3
:1017A000B35EA7029397070193D707013377A70288
:1017B0003308D80313170701B3E7E70063FE0701F7
:1017C000B307F6001387FEFF63E8C72A63F6072B0B
:1017D000938EEEFFB387C70093980801B3E8D80152
:1017E0001395080113DF080113550501B30E6502B7
:1017F000B38707413305AE0213D70E0133036F02DF
:10180000330565003307A700330EEE0363766700E8
:1018100037050100330EAE00370801001308F8FF4A
:10182000135507013377070113170701B3FE0E01A4
:101830003305C5013307D70163F2A712B307F600DA
:101840001383F8FF1388070063E4C71C63E8A72429
:101850006386A7269308030093E818006FF05FD50E
:1018600013071000E39C07C29389E941B39738013D
:10187000B337F000B3193401B3E73701B3D8E80048
:10188000B3E8F80093F778003354E400638007026C
:1018900093F7F80013074000638AE7009387480036
:1018A000B3B817013304140193880700931584001B
:1018B000930710001306000013070000E3CC05BED9
:1018C0006F004013E378FBE8B30EBB0033BF6E013B
:1018D000B30FCF003307F701138B0E00930FF4FF04
:1018E0006374E60863621715638EE81213840F00B1
:1018F0006FF05FE6E3621BD713571B001393FA01E7
:1019000093D71A003363E300131BFB016FF0DFD59D
:1019100013850B00EF10C05B930655011307C00140
:1019200093070502E356D7B4130585FF930800001B
:101930003394AB006FF09FB5EF10805993065501BB
:101940009307C00113070502E3DAD7BE930785FFAB
:10195000B31AF400130B00006FF01FC0E39EA7EE54
:10196000E30807C46FF09FEDE312E6F8E30C0FF60F
:1019700013840F006FF01FDEE374F7D79388E8FF3E
:101980003307C7006FF01FD6E3F217D31304E4FF49
:10199000B387C7006FF0DFD11306F001E356E6EC22
:1019A000130610FEB307F64013060002B357F40007
:1019B0006308C7009389E943B3193401B3E83801D8
:1019C000B3381001B3E8F80013F7780013060000ED
:1019D0006308070293F7F8001307400013040000A0
:1019E000638AE70093874800B3B8170133341001C6
:1019F00093880700131694001317D4011356C600DA
:101A000093D8380033E7E800930700006FF09FAAEF
:101A100093080300E312A8E4E30CB7B893E81800B6
:101A20006FF01FB9E3F4FEECB38ED50133BFBE00F7
:101A3000330FCF001304E4FF138B0E003307E701CD
:101A40006FF05FD1130720C09387F93F9308F0FF31
:101A5000E3C8E9E013874800B338170133041401E1
:101A6000930807006FF0DFB513F7F8001306400086
:101A7000E308C7B46FF01FFE930E07006FF0DFD5C9
:101A800093880E006FF09FD1930609009307F07FB3
:101A900013060000130700006FF0DFA11393150079
:101AA0003338B3003308C800338807019388E8FF50
:101AB00093050300E302A8F66FF01FDAE3E0E5FE0A
:101AC00093080300E31CB7F46FF09FAE13D74501F2
:101AD000B70710009387F7FF13D846011377F77FF6
:101AE0001303F07F33FEB70093080500B3F7D70068
:101AF00093D5F5011378F87F93D6F60113051000FE
:101B0000630C670063086800631407016306FE0244
:101B10006780000067800000E31CE8FEB367FE00FA
:101B2000B3E7C700B3E71701E39407FEB385D540D9
:101B30003335B00067800000E39CC8FC638AD500A1
:101B4000E31807FC336E1E013335C00167800000C7
:101B5000130500006780000093D84501B707100007
:101B60009387F7FF13D7460193F8F87F130EF07FA2
:101B700033F3B70013080500930E0500B3F7D70041
:101B800093D5F501130F06001375F77F93D6F60171
:101B90006388C8056304C503639A080633680301B4
:101BA0006310050633E6C700630C06086312080AD3
:101BB00013051000638206086780000033E6C70043
:101BC000631406086396080033630301E30203FE0F
:101BD0006380D50663920506130510006780000038
:101BE0003363030163120306E31615FFB3E7C7006F
:101BF000639C0704E390D5FE130500006780000096
:101C0000E30808FAE398D5FC6F008002E30405FCC2
:101C1000E392D5FCE34015FD63CCA800E3EC67FA42
:101C20006318F300E368DFFB13050000E3F6EEF949
:101C300013051000E39205F81305F0FF678000001C
:101C4000E31A08F8678000001305E0FF67800000D2
:101C5000E386D5FC6FF01FF893D84501B707100055
:101C60009387F7FF13D7460193F8F87F1303F07FAC
:101C700033FEB70013080500930E0500B3F7D70035
:101C800093D5F501130F06001375F77F93D6F60170
:101C9000638A6804630465026398080633680E016A
:101CA000631E050833E6C7006304060A6316080AC4
:101CB00013051000638006086780000033E6C70044
:101CC00013052000E31A06FE63960800336E0E012A
:101CD000E3000EFE638CD504639E0504130510001B
:101CE00067800000336E0E0163100E06E31615FFC9
:101CF000B3E7C70013052000E39007FCE39ED5FC83
:101D00001305000067800000E30805FCE396D5FC9E
:101D1000E34415FD63CCA800E3E0C7FD6318FE00B3
:101D2000E36CDFFB13050000E3F8EEF91305100088
:101D3000E39405F81305F0FF67800000E30A08F656
:101D4000E39CD5F86FF09FFE13052000678000002C
:101D5000E31408F867800000E380D5FC6FF0DFF73C
:101D6000130101FD93D7450123248102232291020F
:101D700023202103232E3101232A51019394C500EE
:101D800023261102232C41012328610123267101FE
:101D90002324810193F7F77F13040500930A0600BB
:101DA0009389060093D4C40013D9F50163840742D4
:101DB0001307F07F6386E70A939634001357D50123
:101DC0003367D700B7068000B364D700131A350015
:101DD000138C17C0130B0000930B000093D749011D
:101DE0001397C90093F7F77F138F0A001354C700A6
:101DF00093D9F9016380070A1307F07F638EE71414
:101E00001317340093D5DA01B3E5E500938717C0C3
:101E10003707800033E4E500139F3A00B388870159
:101E2000130300001307A00013851800634C670B11
:101E3000B3453901930720001388050063C6671571
:101E4000130BFBFF1307100063606717630AF33C73
:101E500093040400130A0F00930B03006F00C009E2
:101E600033EAA40063180A3C93D749011397C900C9
:101E700093F7F77F93040000130B8000130CF07F9F
:101E8000930B2000138F0A001354C70093D9F90154
:101E9000E39407F6B36754016382073C6300044A86
:101EA00013050400EF10C00293080500130755FF47
:101EB0009307D001138F88FFB387E740B3D7FA00A9
:101EC0003317E40133E4E700339FEA01B3081C4110
:101ED0009388D8C01307A0001303000013851800CF
:101EE000E35867F59305090093072000638AFB32E6
:101EF00093073000638CFB4893071000138805009C
:101F0000639AFB4693070000930600001307000046
:101F10008320C1020324810293974701B3E7D700CE
:101F20009316F801B3E7D700832441020329010285
:101F30008329C101032A8101832A4101032B010165
:101F4000832BC100032C8100130507009385070034
:101F50001301010367800000336754019308FC7F7D
:101F6000630A073037170000334839011307078029
:101F7000136B3B009306A000930508003305EC00AB
:101F800063C0663913033000130610003316660170
:101F900013770653E31A07F4937706246394073CF8
:101FA000137686086312062EB70F0100938EFFFF8B
:101FB000B377DA0193560A01B37EDF01135E0F0196
:101FC0003387D7033383D603935507013306FE02C5
:101FD00033066600B385C500338FC60363F465001E
:101FE000330FFF01B70301001386F3FF33F3C5007E
:101FF000935F04013377C7003374C40013130301E4
:10200000B38287023303E30093D505013387860249
:1020100013D60201B387FF02B387E7003306F60049
:10202000B387F6036374E600B387770037090100CE
:102030009309F9FF3377360193D30401B3F63401E2
:10204000B3F2320113170701B384DE0233075700DE
:10205000135606013306F600B385E500B302DE022F
:1020600093D70401B38ED303B382D201B387570051
:10207000330E7E0263F4D701330E2E01B70901003F
:10208000938EF9FFB3F2D70193D70701B387C70146
:10209000B3FED401939202013309D402B382D20178
:1020A00033848302135E0901B386DF02B3868600A0
:1020B000330EDE00B38E7F0263748E00B38E3E015A
:1020C000B70F0100938FFFFFB376FE0193960601D1
:1020D0003379F901B385E501B38626013386C6005D
:1020E00033B7E5003307E600338F5500B307F70039
:1020F000B335BF00B385B700B336D6003336C7005B
:10210000B3E6C60033B7E700135E0E01B3B7F500C0
:10211000B386C6013367F70093179F003307D700D4
:10212000B3E767003307D701B337F00013567F01D9
:102130001317970093D67501B3E7C70093959500E1
:1021400033EAB70093177700B364D70063D0070270
:1021500013571A0093771A009396F401B367F700A8
:1021600033EAD70093D41400930805001386F83F90
:102170006356C01293777A00638007029377FA0060
:1021800013074000638AE70013074A00B33747018B
:10219000B384F400130A07009397740063DA07000E
:1021A000B70700FF9387F7FFB3F4F40013860840E6
:1021B0009307E07F63C4C71C93573A001397D40179
:1021C000939694003367F70093D6C6009377F67F13
:1021D0006FF01FD433EAA40063080A06638E04126A
:1021E00013850400EF00D04E13060500930655FF3B
:1021F0001307D001930786FF3307D7403357E40016
:10220000B396F400B364D700331AF4009307D0C038
:10221000338CC740130B0000930B00006FF01FBC02
:10222000138805009307F07F930600001307000052
:102230006FF01FCE130A0500130BC000130CF07FC4
:10224000930B30006FF09FB993040000130B400014
:10225000130C0000930B10006FF05FB8136B1B00A2
:1022600093080C0013040000130F00001303100068
:102270006FF05FBB136B2B0013040000130F000003
:10228000130320006FF01FBA93040400130A0F0019
:10229000930B0300938509006FF01FC5130710000F
:1022A000631006109388E84133161A013336C000D4
:1022B000B3981401B357EA00336616013366F6008B
:1022C00093777600B3D5E400638007029377F60036
:1022D00013074000638AE7009307460033B6C70040
:1022E000B385C5001386070013958500930710007A
:1022F0009306000013070000E34C05C06F00C010F8
:102300001307F0006310EB1213080000B706080073
:10231000130700006FF0DFBFEF00903B93065501FD
:102320009307C00113060502E3D4D7EC130585FF1C
:10233000130A0000B314A4006FF05FED13850A00C8
:10234000EF001039130755019307C00193080502E8
:10235000E3D0E7B6130585FF130F00003394AA00FE
:102360006FF0DFB6130800009307F07FB706080090
:102370006FF01FBA930805006FF05FDF9307F07FDF
:1023800093060000130700006FF09FB813080000C9
:102390009307F07FB7060800130700006FF05FB7E0
:1023A0003307C74093078003E3CEE7B49307F001F8
:1023B000E3DAE7EE930710FEB387C7409306000207
:1023C000B3D7F4006308D7009388E843B3981401A7
:1023D000336A1A01333640013366F600137776000C
:1023E00093060000630807029377F6001307400086
:1023F00093050000638AE7009307460033B6C700E1
:10240000B335C00013860700939695001397D50146
:1024100093D6C600135636003367E60093070000D4
:102420006FF01FAF93040400138A0A00930B30006F
:10243000938509006FF05FABB70710009387F7FF34
:10244000130101FEB3F8B70033F8D70093D7460164
:1024500093983800232C81002326310113D4F501F1
:1024600093D945011357D501131838009355D60158
:10247000232E1100232A91002328210113FFF77F27
:102480001303F07F3367170193F9F97F130E0400EC
:102490009318350093D6F601B3E50501931E360077
:1024A000630C6F2093C61600B387E9416302D4160C
:1024B000E35AF000630A0F246384693C93068003A7
:1024C0001305100063CEF602B7068000B3E5D50011
:1024D0009306F00163C4F64E93060002B386F640FD
:1024E0003395D50033D6FE00B396DE003365C500C4
:1024F000B336D000B3D7F5003365D5003307F740C6
:102500003385A84033B6A800930405003309C740BB
:102510009317890063D80734B70780009387F7FFC4
:102520003379F9006306092E13050900EF00501AEC
:10253000930785FF930600023387F64033D7E40004
:102540003319F90033672701B394F40063C4373FAC
:10255000B387374193871700B386F6403396D4008C
:1025600033D9F4003336C0003366C900B316D70040
:10257000B3E4C6003359F7009309000093F77400E1
:102580006380070293F7F40013074000638AE700B3
:102590009387440033B597003309A900938407005B
:1025A0009317890063D0076C938719001307F07F96
:1025B0006386E724370780FF1307F7FF3377E900C7
:1025C00093F7F77F1318D70113D53400131797002B
:1025D0003368A8001357C700137E14008320C1017D
:1025E0000324810193974701B3E7E7001317FE0126
:1025F000B3E7E70083244101032901018329C100D6
:10260000130508009385070013010102678000008D
:102610006352F07063160F1CB3E6D501638E062675
:102620009386F7FF63880646638C672493078003CD
:102630001309100063CCD702938706009306F001BC
:1026400063CAF64893060002B386F6403399D50074
:1026500033D6FE00B396DE003369C900B336D0002E
:10266000B3D7F5003369D9003307F70033061901F2
:1026700033392601930406003309E90093178900D2
:1026800063D2071E938919009307F07F6388F916B8
:10269000B70780FF9387F7FF13F51400B377F900AE
:1026A00013D714003367A7001395F701B364E5004F
:1026B00013D917006FF09FEC33E8D501138319800D
:1026C00063080806630AD4066304030E638E0926B2
:1026D00013153600135535001384060013870500C3
:1026E0001318D7013368A800135737003367070161
:1026F00063060710130E00009307F07F37070800EA
:10270000130800006FF09FEDB3E6D501638606184D
:102710009386F7FF6382063A638467169307800304
:1027200013051000E3CED7DC938706006FF05FDA65
:1027300093C61600E31AD4F8630803186390092CB3
:102740009307F07FB3661701638806489386F7FF07
:10275000638206341305F07F6382A72A9307800300
:102760001309100063CAD7029307F00163C6D74C60
:1027700093070002B387D7403319F70033D6D80048
:10278000B397F8003369C900B337F000B356D700E8
:102790003369F900B385D5003307D90133392701EF
:1027A000930407003309B90093090F006FF01FED80
:1027B0009387190093F7E77F6394071433E8D501F3
:1027C000B36717016394092A638E07386310083CC6
:1027D0001315350013593500930700006F004011A1
:1027E0006380690A9306800313091000E3C0F6E8CA
:1027F000B7068000B3E5D5006FF05FE4137E1400E8
:102800009307F07F13070000130800006FF01FDD2F
:1028100013850400EF00C06B930785019306F00158
:10282000E3DAF6D0130785FF3397E40063CE371B56
:10283000B38937419387190063DEF642938919FE05
:1028400093060002B3543701638CD700930600044B
:10285000B387F6403317F7003337E000B3E4E40002
:102860009309000093F77400E39E07D09387090053
:1028700013D53400130709006F008002E31C08E63B
:10288000131535001318D701135535003368A80008
:10289000135737006FF09FE51315350013553500BA
:1028A0001318D7019306F07F3368A8001357370039
:1028B000E38ED7E21317C7001357C70093F7F77FCC
:1028C000137E14006FF09FD19386190093F7E67F73
:1028D000639E0712B3671701639A09246386073062
:1028E000B3E7D501639A0730131535001359350046
:1028F0001318D70133682801135737006FF09FFB77
:102900003388D841B3B708013309B7403309F940D8
:10291000931789009304080063C2071233682801E3
:10292000E31208C0130E0000930700001307000015
:102930006FF0DFCA370980FF1309F9FFB389F94047
:10294000337927016FF09FC39307F07F3365170139
:10295000630405101388F7FF6302081E1305F07F58
:10296000E388A7D69307800313840600130510009D
:1029700063CA07039307F00163C4071993070002B2
:10298000B38707413315F700B3D60801B397F800B2
:102990003365D500B337F000335807013365F500D0
:1029A000B38505413385AE4033B7AE0093040500CF
:1029B0003389E54093090F006FF09FB5938607FEBA
:1029C00013060002B3D6D500638AC70013060004BD
:1029D000B307F640B397F500B3EEFE003335D001F0
:1029E0003365D5006FF0DFB1B70680FF9386F6FF41
:1029F000B387F9403377D7006FF09FEF1315360098
:102A000013553500138705006FF09FCD9307F07FB6
:102A1000E386F6DEB38ED80133B61E01B307B700E6
:102A2000B387C7001395F70193DE1E00B364D50189
:102A300013D91700938906006FF05FB433861E41E7
:102A4000B387E54033B7CE00930406003389E740EF
:102A5000138406006FF01FAD1316360013553600B1
:102A600013840600138705006FF09FE3E39807E0E7
:102A70006306082213D73500131636009395D50147
:102A80003367B700135636003367C7001384060058
:102A90006FF01FC6B38ED801B305B70033B61E0161
:102AA0003389C5009317890093840E0063D8070A01
:102AB000930920006FF0DFBDB38ED841B305B74056
:102AC00033B6D80193840E003389C54093091000B2
:102AD0006FF01FA4938607FE13060002B3D6D5003D
:102AE000638AC70013060004B307F640B397F500E6
:102AF000B3EEFE003339D0013369D9006FF01FB750
:102B0000930708FE93060002B357F700630AD80044
:102B100093060004B38606413317D700B3E8E800F4
:102B2000333510013365F5006FF0DFE7E38807EC1C
:102B3000B3EED501E3900EBC6FF09FD433861E41F7
:102B4000B385E54033B7CE00930406003389E540F2
:102B500013840600930910006FF09F9B93071000E9
:102B60006FF01FD1E30008DC1316360093573600D0
:102B70001398D501139795003368F8001357C700D1
:102B8000138E0600930700006FF05FA53389D841CC
:102B9000B3B728013306B7403306F64093178600D3
:102BA00063D2070E33861E413387E540B3BECE00A5
:102BB0003307D741931787009304060063DE07129B
:102BC000B70780FF9387F7FF3377F700138406007A
:102BD000930710006FF01F9F131636001355360031
:102BE000138705006FF0DFCB13163600135936003C
:102BF000138705006FF0DFCFB386D801B307B700A6
:102C000033B61601B387C7001397870013D8360071
:102C1000635E0708370780FF1307F7FFB3F7E70086
:102C20001397D701939797003368070113D7C7000D
:102C3000930710006FF09F9A938706FE1306000219
:102C4000B357F700638AC60013060004B306D640E4
:102C50003317D700B3E8E800333910013369F900BE
:102C60006FF09FB313D53400938709001307090051
:102C70006FF01FC393060002B386F64013060000F0
:102C80006FF09F8E3368C900E30E08C813593900EE
:102C900093070000130706006FF09FC5130E000096
:102CA0009307F07F370708006FF05F931397D70102
:102CB000939797003368070113D7C7009307000065
:102CC0006FF0DF91E38607AE33083F4193070800BA
:102CD000E38E09C69307800363CA0701B707800024
:102CE0003367F700138406006FF0DFC81384060013
:102CF000130510006FF01FCB1318D70113563600C1
:102D00003368C80013573700930700001384060088
:102D10006FF05FBAE38A07BAB3063F4163960900D2
:102D2000938706006FF01FA293078003130910001A
:102D3000E3C4D7A6B70780003367F7006FF0DFA2C0
:102D400013D74501B70710009387F7FF1347F7FF25
:102D500013D84601B3F5B700B3F7D7009316570160
:102D60001378F87F638006021307F07F13050000D5
:102D70006304E80067800000B3E7C7003335F00064
:102D800067800000B3E5A50013051000E38E05FC85
:102D90006780000093D74501B70610001387F6FF40
:102DA00093F7F77F1306E03F3377B70093D5F5012C
:102DB000635EF6001306D041635EF60037050080BF
:102DC0001305F5FF3385A50067800000130500009B
:102DD00067800000130630433306F6401308F00105
:102DE0003367D7006350C80293063041B387F6407B
:102DF0003357F7003305E040E39C05FC130507005B
:102E0000678000009387D7BE3317F7003355C5009E
:102E10003367A7006FF01FFE130101FF2326110087
:102E20002324810023229100630A05041357F541EE
:102E3000B344A700B384E44093070500138504005E
:102E400013D4F701EF00C0089307E041B387A74010
:102E50001307A00093F7F77F6340A7061307B0009E
:102E60003307A74033D7E400130555011317C700F4
:102E7000B394A4001357C7006F004001130400006F
:102E80009307000013070000930400009397470185
:102E90001314F401B3E7E7008320C100B3E7870010
:102EA00003248100138504009385070083244100D7
:102EB0001301010167800000130555FF3397A4003B
:102EC0001317C7001357C700930400006FF01FFCCF
:102ED000B7070100637AF5029337051093B717001F
:102EE00093973700130700023307F7403355F50077
:102EF00097170000938747F9B387A70003C507001A
:102F00003305A74067800000B70700016374F5022E
:102F1000930700013355F500971700009387C7F614
:102F2000B387A70003C50700130700013305A740B7
:102F300067800000930780013355F5009717000064
:102F4000938787F4B387A70003C5070013078000A2
:102F50003305A74067800000B7070500D84F9D667E
:102F60008906558FD8CFD84B13679708D8CB828066
:102F7000411106C6370500029307050337074900CC
:102F800098C3238207002393070013050503EF006E
:102F9000B049B24041018280B717050003A787C13D
:102FA000D176FD16758F23ACE7C003A787C1F576F0
:102FB000FD16758F23ACE7C0B7570800130700084C
:102FC00023A4E7801307000423A6E7808280411131
:102FD00006C6B757080003A707811347070823A8A9
:102FE000E7809305401F3705000213050503EF0036
:102FF000D04D37450080130545F8EF00702BB240E7
:1030000041018280411106C685470147814621461C
:103010009305501137150800130505406920B2408B
:1030200041018280411106C6053F9937B537D93F26
:10303000793FFDBF011106CE22CC2A8402C002C214
:1030400002C402C6B717080093870740630CF50057
:10305000B7270800938707806305F402F2406244B3
:1030600005618280B70705000947D8CF930700069E
:103070003EC085473EC28A8537450800EF00D0250F
:10308000C1BFB70705001147D8CF930700303EC036
:1030900085473EC202C48A853745080013050540AE
:1030A000EF00902365BF011106CE22CC26CA4AC884
:1030B0004EC652C456C2AA842E893284B68A3A8A2F
:1030C000BE898D3F37160800130606406389C40287
:1030D0003726080013060680638EC404BD4763F1DB
:1030E000270D23A0040023A62401FD57DCCC23A236
:1030F000540123A44401936714009CC071A03707B6
:1031000000028347970393E71700A30CF702638B32
:103110000900370700028347870393E71700230C52
:10312000F7027DB73707000283478703F99B230C1B
:10313000F70279BF370700028347970393E7270019
:10314000A30CF702638B090037070002834787034C
:1031500093E72700230CF70251B737070002834794
:103160008703F59B230CF70295BF014511A0054588
:103170009377840089CB19C59317A70063C0070212
:10318000014511A0014511EDD84C93774400E5D3DA
:1031900093179700E3DB07FC0545D9BF0545E5B765
:1031A0000145F2406244D2444249B249224A924A1D
:1031B000056182805C4D93F7070499E301458280A5
:1031C00005458280411106C622C42A842285DD3746
:1031D00075DDB2402244410182800CD582804111CC
:1031E00006C622C42A84B707000283C78703858BDB
:1031F00099EBB707000283C78703898B9DE3B24031
:1032000022444101828093150501C18137150800D0
:1032100013050540D93737150800130505405D37FC
:10322000C9BF93150401C181372508001305058026
:103230006D3737250800130505806937C9B7411177
:1032400006C622C426C24AC02A84AE84014931A8D7
:10325000B707000203A6870083A6C7002285A685BC
:10326000EFE0CF8D2A84AE840509B707000203A6DC
:10327000870083A6C7002285A685EFE0FF8D6349FE
:103280000504B707000203A6070083A647002285AE
:10329000A685EFE07F8CE34D05FAB707000203A691
:1032A000070083A647002285A685EFE02F892A84A0
:1032B000AE8415095DBFB707000203A6870083A689
:1032C000C7002285A685EFE0BFA92A84AE847D19B8
:1032D000B707000203A6870183A6C7012285A6853A
:1032E000EFE09F97635C0502B707000203A60701A2
:1032F00083A647012285A685EFE01F96E35D05FAC8
:10330000B707000203A6070083A647002285A6850B
:10331000EFE01FA52A84AE846D195DBF4A85B240D7
:1033200022449244024941018280411106C622C4CE
:103330002A8437070002832787018325C70121A834
:1033400037070002032687008326C7003E85EFE08B
:103350003FA1AA877D14635C80021147E35287FE78
:103360003707000203260700832647003E85EFE06B
:103370003F9FAA876D14C5B7370700020326870051
:103380008326C7003E85EFD07FFBAA8705046351E3
:1033900004027157E352E4FE3707000203260700D8
:1033A000832647003E85EFD07FF9AA871504C5B76D
:1033B0003E85B240224441018280397106DE22DC22
:1033C00026DA4AD84ED662CC66CA6EC62A842E89C0
:1033D000B289368CBA8C2E86CE864A85CE858D32C1
:1033E0006310052856D26AC8634D0C080146814611
:1033F0004A85CE85EFE05F8663470508930DB002EE
:10340000B7040080FD14B3F49900B707000203A6C7
:10341000070283A647024A85A6851D3225EDB70718
:10342000000203A6070283A647024A85A685EFE0AD
:10343000BF826351A006B7440080938404F9814A97
:10344000014D63870414925A424D85C063850D0077
:103450002300B401050426878504034707002300E1
:10346000E400050483C70400FDF723000400F250C4
:103470006254D2544259B259624CD24CB24D21617D
:103480008280194CA5B7B7070080B3C93701930DE7
:10349000D002BDB793076006638DFC0001468146EC
:1034A0004A85CE85EFE08FE221E98144814A014DD2
:1034B00049BF33058041953DB707000203A6870247
:1034C00083A6C702EFE0DF892A86AE864A85CE85CD
:1034D000EFD04FDA2A89AE894A85CE858D33AA8A04
:1034E000634A0500B3075C017147634FF7068144E7
:1034F000014D81BF814AFDB752D44A85CE858133C3
:10350000330585411D35B707000203A6870283A650
:10351000C702EFE0FF842A86AE864A85CE85EFD0CB
:103520006FD52A8AAE842A89AE895285A685013B49
:103530002A8D9307300663CFA702E54763C387054B
:103540009307D0F96354F500130DD0F96A85F13B68
:103550002A86AE865285A685EFD05FDE2A89AE899F
:103560008144814A225AF1BDB7440080938444F9D2
:10357000014DC1BDB7440080938444F9814A225A69
:10358000C9B5B7440080938444F9814A225A55BD95
:1035900052D45AD05ECE9307D0026397FD02230027
:1035A000B401050415A0930714001307C0022300FB
:1035B000E40013841700130A0A0323804701FD1A4D
:1035C0003307804163C2EA0456858533AA8B2E8B6C
:1035D0002A86AE864A85CE85EFD05FD6EFF08FFB88
:1035E0002A8AEFF07F835E86DA86EFE06FF72A861D
:1035F000AE864A85CE85EFE03FE42A89AE89FD5745
:10360000E383FAFAA28775B7130760066380EC06B6
:10361000A3809701634D0D02138737009306B00214
:103620002381D700A946B347DD0293870703230010
:10363000F700336DDD0213042700130D0D03A30003
:10364000A701225A925A025BF24B424DFDBB330D49
:10365000A041138737009306D0022381D700D9B742
:10366000B74400809384C4F9814DC5B3225A925A5D
:10367000025BF24B424DD1BB411106C622C426C2A9
:10368000AA842E84A947638AF50099C8228582946A
:10369000B2402244924441018280B545F13FF5B7E2
:1036A000B707000283A7C703E5D79386170037073C
:1036B0000002232ED70223808700D9BF197186DE2E
:1036C000A2DCA6DACAD8CED6D2D4D6D2DAD0DECE12
:1036D000E2CCE6CAEAC8EEC62A8B2EC832CE21A0BA
:1036E0005A85593F22C8C2471384170083C5070073
:1036F0006381053A93075002E394F5FEC2471387AE
:103700002700034A0400930700036307FA069307A0
:10371000D002630BFA06930700023EC6814D930761
:10372000A0026314FA0AF2479386470036CE83AAB2
:10373000070063C50A06930717003EC8034A07003F
:103740009307E0026305FA087D549307C0066309F6
:10375000FA0C63000A349307BAFB93F6F70F1307CA
:1037600030036366D71E9397260037470080130700
:1037700047D7BA979C438287C2471387370052C600
:10378000034A1400814D61BFC24713873700034AC3
:103790001400930700023EC6894D51B7B30A504149
:1037A000894D51BF93972A00D6978607D297938A5F
:1037B00007FD034A0700050793070AFD93F7F70F74
:1037C000A546E3F1F6FE3AC8A5BF814AF5B7C24661
:1037D0001387160003CA06009307A0026310FA04B9
:1037E000F247138747003ACE804303CA16009387F7
:1037F00026003EC899BF93172400A2978607D29748
:10380000138407FD034A0700050793070AFD93F792
:10381000F70FA546E3F1F6FE3AC805BF0144F5B738
:1038200093E64D00C2471387170003CA07009307AA
:10383000C0066305FA00B68D3AC821BF93EDCD00EE
:10384000C24703CA170089073EC821B7A94B93F79F
:103850008D0063860710F2479D07E19B1387870061
:103860003ACE8443C04393074006630FFA10014CDD
:1038700051A2C14BE9BFF247138747003ACE83C537
:1038800007005A85D53B85B5F247138747003ACEE6
:1038900003A90700630B09004A85B921AA84634F75
:1038A0000400637DA400A28411A837490080130995
:1038B00089F9DDB7B2455A85C133850493F72D00E8
:1038C00081EBE3E954FF29A005095A8575334E843D
:1038D0008345090091C99309F4FF7DF431A0930554
:1038E00000025A85513BA28413841400E3E954FF7B
:1038F000DDBBF2479D07E19B138787003ACE5287D5
:10390000A2868C43D04308104D3C0810F12E2A8427
:1039100029A0B2455A858D33050493F72D0081EF18
:10392000E36954FF041021A085045A85B13383C58F
:103930000400FDF901A80410DDBF930500025A85BB
:10394000253B268493041400E36954FF69BBD285A8
:103950005A851D3349BB894BDDBDA14BCDBD93F7C6
:103960004D009DCF930740066309FA00F247138785
:1039700047003ACE84430144DDBDF2471387470038
:103980003ACE844313D4F441E35304EEB3379000AA
:10399000330480401D8CB304904093ED1D00C1BDE5
:1039A000930740066309FA00F247138747003ACEAF
:1039B000844301446DBDF247138747003ACE8443E8
:1039C00013D4F441D1B793077002CA9713F9F70FD4
:1039D00093091C001309090393070C031808BA97ED
:1039E000238027FF63E9AC0563039D05FD4763E47E
:1039F00037054E8C5ECA014D5E8681462685A285BE
:103A0000EFC05FC01379F50F26CCA28C5E8681468D
:103A10002685A285EFC00FF4AA842E84A547E3F97A
:103A200027FB93078007E300FAFA9D4779BFD24747
:103A30006247E37DF7FA93F71D0081CF938709036F
:103A40001808B389E7009307D0022380F9FE930991
:103A50002C004E8429A0B2455A853939050493F7C4
:103A60002D0099E3E36954FFFD19938709031808B2
:103A7000BA9783C507FE5A850131E39709FE93047F
:103A80001400E37254C7930500025A85F536268464
:103A9000FDB7F6506654D6544659B659265A965A2A
:103AA000065BF64B664CD64C464DB64D096182809E
:103AB000397106CE2ED232D436D63AD83EDA42DC2E
:103AC00046DE501032C6AA85373500801305E51D45
:103AD000F536F24021618280AA8EB74708009387AD
:103AE0000740630CF508B757080093870780630306
:103AF000F50AB7470800630DF50A054582801145B0
:103B0000630AA60623A4DE0083260E00FD8ED045A0
:103B100033161601D18E2320DE0083260F00F58F89
:103B20009445B3961601D58F2320FF0005079C41CD
:103B300033D5E70059C98546B396E600F58FFDD722
:103B400003260300931817008D47B397170193C7F7
:103B5000F7FF7D8E03A8450013783800331818014D
:103B6000336606012320C300D0411145E309A6F8BE
:103B700041FE71B723A6DE0041BF371F0500130FBA
:103B80004FC1371E0500130E0EC137130500130376
:103B9000C3C029A8371F0500130F0FC2371E050029
:103BA000130ECEC137130500130383C1014741B77C
:103BB000371F0500130F8FC0371E0500130E4EC0B0
:103BC00037130500130303C0D5B7828018411C4387
:103BD00093E717001CC3828018411C43F99B1CC348
:103BE0001C4123A407001C4123A607008280230256
:103BF000B50089C585476388F50082801C419843DC
:103C000023A00700828018411C4393E727001CC3B0
:103C100082809307F03F63F4B7009305F03F2313CE
:103C2000B5001C41CCC38280411106C622C42A843F
:103C30001C4123A0070083454500553F8355640080
:103C40002285C13FB240224441018280411106C613
:103C5000B70705009C4337170200130797C4637327
:103C6000B700BA852167130707D0B385E50293F73C
:103C7000F70F8507B3D5F502835765008507B3D5E0
:103C8000F5021C4123A407001C4123A607001C4188
:103C90008CCB1C4123AA0700153FB2404101828012
:103CA0001C419047D847944BDC4B630BF70063FCF7
:103CB000E700411106C60D370545B240410182803B
:103CC000E3F7C6FEFDB701458280411106C622C456
:103CD0002A84AD3F2285E93775DD2285F53DB24066
:103CE00022444101828000009377350013070500CC
:103CF000639C0704B7867F7F9386F6F79305F0FFF2
:103D00000326070013074700B377D600B387D70011
:103D1000B3E7C700B3E7D700E384B7FE8346C7FF26
:103D2000B307A740638406048346D7FF638C06026B
:103D30000345E7FF3335A0003305F5001305E5FF24
:103D400067800000E38806FA83470700130717001F
:103D500093763700E39807FE3307A7401305F7FF74
:103D6000678000001385D7FF678000001385C7FFB9
:103D700067800000F23800804E3900804E390080A4
:103D80004E3900804E3900804E3900804E39008017
:103D90004E3900804E3900804E3900804E39008007
:103DA0004E3900804E3900804E3900804E390080F7
:103DB0004E3900804E3900804E3900804E390080E7
:103DC000723800804E3900804E3900804E390080B4
:103DD0004E3900804E3900804E3900804E390080C7
:103DE0004E3900804E390080563900807638008088
:103DF0004C380080F2380080F23800804E39008064
:103E00004E3900804E3900804E3900804E39008096
:103E10004E3900804E3900804E3900805A3900807A
:103E20004E3900804E3900804E390080883800803D
:103E30004E3900804C3800804E3900804E39008069
:103E4000723800800CD8FFFFB8D6FFFF64D6FFFFA2
:103E5000B8D7FFFF64D6FFFFC8D6FFFF64D6FFFFC9
:103E6000B8D7FFFFB8D6FFFFB8D6FFFFC8D6FFFF11
:103E7000B8D7FFFF44D7FFFF44D7FFFF44D7FFFF6A
:103E8000C8D6FFFF00010202030303030404040475
:103E900004040404050505050505050505050505D6
:103EA00005050505060606060606060606060606B6
:103EB00006060606060606060606060606060606A2
:103EC0000606060607070707070707070707070786
:103ED0000707070707070707070707070707070772
:103EE0000707070707070707070707070707070762
:103EF0000707070707070707070707070707070752
:103F00000707070708080808080808080808080835
:103F10000808080808080808080808080808080821
:103F20000808080808080808080808080808080811
:103F30000808080808080808080808080808080801
:103F400008080808080808080808080808080808F1
:103F500008080808080808080808080808080808E1
:103F600008080808080808080808080808080808D1
:103F700008080808080808080808080808080808C1
:103F8000080808085365742076616C75650A0D0091
:103F9000494E46004F560000000000004E614E00A2
:103FA0002530386C582000002025303258000000A1
:103FB0002020000020253034580000002025303813
:103FC0006C5800000000000000000000000000002D
:103FD00000000000006AF8400000000000002440DB
:103FE000F168E388B5F8E43E000000000000F03F0F
:103FF000FFFFFFFFFFFFEF7F000000000000E03F3A
:040000058000000077
:00000001FF
